:100000000C9449030C9471030C9471030C947103C8
:100010000C9471030C941F040C9471030C947103E1
:100020000C9471030C9471030C9471030C94710380
:100030000C9471030C9471030C9471030C94710370
:100040000C94FF270C9471030C94D12A0C94032B6D
:100050000C9471030C9471030C9471030C94710350
:100060000C94851E0C94710358175A175C175E1771
:1000700060176217641764171018131816181918E8
:100080001C181F182A182D182A2043616C696272E7
:100090006174696F6E204F4B21002A2A2043616CE6
:1000A0006962726174696F6E202A2A002A2A2A20E6
:1000B00053657420746F20545278202A2A002A2A0B
:1000C000205475726E20524954204F6666202A00D3
:1000D0002020202020202020202020202020202020
:1000E00020005369353335312076666F20562E3126
:1000F0002E300042464F005249540054527800209E
:1001000020314D487A003130306B487A0020313050
:100110006B487A002020316B487A0020313030481B
:100120007A0020203130487A0020202031487A009F
:10013000537465703A0000000000003E5B4F5B3E68
:100140003E6B4F6B3E1C3E7C3E1C183C7E3C181C9C
:10015000577D571C1C5E7F5E1C00183C1800FFE793
:10016000C3E7FF0018241800FFE7DBE7FF30483A39
:10017000060E2629792926407F050507407F05259B
:100180003F5A3CE73C5A7F3E1C1C08081C1C3E7F23
:1001900014227F22145F5F005F5F06097F017F00EA
:1001A0006689956A606060606094A2FFA29408040A
:1001B0007E040810207E201008082A1C08081C2A2B
:1001C00008081E101010100C1E0C1E0C30383E3883
:1001D00030060E3E0E06000000000000005F00002A
:1001E0000007000700147F147F14242A7F2A12239B
:1001F0001308646236495620500008070300001CAB
:100200002241000041221C002A1C7F1C2A08083EB3
:1002100008080080703000080808080800006060C6
:100220000020100804023E5149453E00427F400034
:1002300072494949462141494D331814127F10270C
:10024000454545393C4A494931412111090736495B
:10025000494936464949291E00001400000040342F
:100260000000000814224114141414140041221434
:100270000802015909063E415D594E7C1211127C5B
:100280007F494949363E414141227F4141413E7FBC
:10029000494949417F090909013E414151737F089C
:1002A00008087F00417F41002040413F017F081442
:1002B00022417F404040407F021C027F7F040810A3
:1002C0007F3E4141413E7F090909063E4151215E81
:1002D0007F09192946264949493203017F01033F15
:1002E0004040403F1F2040201F3F4038403F6314A4
:1002F00008146303047804036159494D43007F41A6
:1003000041410204081020004141417F04020102E2
:100310000440404040400003070800205454784007
:100320007F284444383844444428384444287F389B
:100330005454541800087E090218A4A49C787F081D
:1003400004047800447D40002040403D007F102898
:10035000440000417F40007C047804787C08040459
:10036000783844444438FC1824241818242418FCF1
:100370007C08040408485454542404043F44243C96
:100380004040207C1C2040201C3C4030403C442805
:100390001028444C9090907C4464544C440008369F
:1003A000410000007700000041360800020102040D
:1003B000023C2623263C1EA1A161123A4040207A2D
:1003C0003854545559215555794121545478412177
:1003D0005554784020545579400C1E5272123955AC
:1003E00055555939545454593955545458000045A9
:1003F0007C410002457D420001457C40F0292429D2
:10040000F0F0282528F07C545545002054547C54A5
:100410007C0A097F493249494932324848483232D8
:100420004A4848303A4141217A3A42402078009D7A
:10043000A0A07D39444444393D4040403D3C24FF28
:100440002424487E4943662B2FFC2F2BFF0929F6D5
:1004500020C0887E090320545479410000447D4126
:100460003048484A32384040227A007A0A0A727D7F
:100470000D19317D2629292F28262929292630489A
:100480004D4020380808080808080808382F10C808
:10049000ACBA2F102834FA00007B000008142A148C
:1004A0002222142A1408AA005500AAAA55AA55AA5D
:1004B000000000FF00101010FF00141414FF0010C3
:1004C00010FF00FF1010F010F0141414FC001414AE
:1004D000F700FF0000FF00FF1414F404FC141417CD
:1004E000101F10101F101F1414141F00101010F0F4
:1004F000000000001F101010101F10101010F0103E
:10050000000000FF101010101010101010FF10004D
:100510000000FF140000FF00FF00001F1017000084
:10052000FC04F414141710171414F404F40000FF5E
:1005300000F714141414141414F700F714141417F7
:100540001410101F101F141414F4141010F010F0D5
:1005500000001F101F0000001F14000000FC14000A
:1005600000F010F01010FF10FF141414FF141010FE
:10057000101F00000000F010FFFFFFFFFFF0F0F081
:10058000F0F0FFFFFF0000000000FFFF0F0F0F0F54
:100590000F38444438447C2A2A3E147E0202060660
:1005A000027E027E0263554941633844443C044064
:1005B0007E201E2006027E020299A5E7A5991C2A2C
:1005C000492A1C4C7201724C304A4D4D30304878EB
:1005D0004830BC625A463D3E494949007E0101010E
:1005E0007E2A2A2A2A2A44445F444440514A4440ED
:1005F00040444A51400000FF0103E080FF00000832
:10060000086B6B083612362436060F090F060000F9
:1006100018180000001010003040FF0101001F01F9
:10062000011E00191D1712003C3C3C3C000000005C
:1006300000000000080002010000030407000000A1
:1006400000000000000102040810204080010204A4
:100650000810200102040810200404040404040407
:100660000402020202020203030303030300000068
:100670000023002600290000000000250028002B90
:100680000000000000240027002A0000400BA31DEA
:10069000332B11241FBECFEFD8E0DEBFCDBF15E056
:1006A000A0E0B1E0E6E6F4E602C005900D92A83ABB
:1006B000B107D9F727E0A8EAB5E001C01D92AA3C2E
:1006C000B207E1F716E0C2E9D6E004C02297FE01C6
:1006D0000E944A2CCC38D107C9F70E94772B0C9482
:1006E00031320C9400002091A905213021F018F03E
:1006F0002230C9F16EC081309105A9F480910E01BC
:1007000090910F01A0911001B091110140910A0147
:1007100050910B0160910C0170910D01840F951F98
:10072000A61FB71F17C0019609F053C080910E0194
:1007300090910F01A0911001B091110140910A0117
:1007400050910B0160910C0170910D01841B950B70
:10075000A60BB70B80930E0190930F01A09310018D
:10076000B093110136C081309105A9F48091120136
:1007700090911301A0911401B091150140910A01CB
:1007800050910B0160910C0170910D01840F951F28
:10079000A61FB71F16C00196E1F480911201909137
:1007A0001301A0911401B091150140910A015091DB
:1007B0000B0160910C0170910D01841B950BA60B30
:1007C000B70B8093120190931301A0931401B0937F
:1007D000150180910E0190910F01A0911001B0912F
:1007E00011018130934AA14EB14160F080E093EA5B
:1007F000A1EEB1E180930E0190930F01A09310013F
:10080000B093110180910E0190910F01A091100100
:10081000B091110180349244AF40B10560F480E49E
:1008200092E4AFE0B0E080930E0190930F01A093AB
:100830001001B093110181E08093AF0508951F92DC
:100840000F920FB60F9211242F933F934F935F9304
:100850006F937F938F939F93AF93BF93EF93FF9388
:1008600080EC95E00E94950B803119F481E090E0D6
:1008700004C0803221F48FEF9FEF0E947303FF9139
:10088000EF91BF91AF919F918F917F916F915F9108
:100890004F913F912F910F900FBE0F901F90189581
:1008A00084E00E946729892BA1F464E170E080E074
:1008B00090E00E946C2884E00E946729892BD1F582
:1008C00084E00E946729892BD9F381E08093AE05EB
:1008D00031C085E00E946729892BA1F464E170E0B2
:1008E00080E090E00E946C2885E00E946729892BB7
:1008F00009F585E00E946729892BD9F381E080936F
:10090000AD0518C087E00E946729892B99F464E13E
:1009100070E080E090E00E946C2887E00E946729E8
:10092000892B41F487E00E946729892BD9F381E064
:100930008093AC058091AD059091AE05892B909187
:10094000AC05892B0895EF92FF920F931F9386E0D9
:100950000E946729892B21F48091AB05882359F0E7
:1009600086E00E946729892B09F4BCC08091AB0501
:10097000811133C0B7C081E08093A9058093AB0596
:1009800080910E0190910F01A0911001B091110181
:100990008093B8059093B905A093BA05B093BB05B1
:1009A00080910A0190910B01A0910C01B0910D0171
:1009B0008093060190930701A0930801B093090169
:1009C00084E690E0A0E0B0E080930A0190930B01F0
:1009D000A0930C01B0930D0185C01092A90510924F
:1009E000AB058091B8059091B905A091BA05B09179
:1009F000BB0580930E0190930F01A0931001B0935B
:100A000011018091060190910701A0910801B09118
:100A1000090180930A0190930B01A0930C01B093FC
:100A20000D011092A80540910E0150910F016091A7
:100A30001001709111018091120190911301A09108
:100A40001401B091150184179507A607B707A8F000
:100A500040910E0150910F016091100170911101B0
:100A60008091120190911301A0911401B091150190
:100A7000840F951FA61FB71F14C080910E0190917F
:100A80000F01A0911001B0911101409112015091FC
:100A900013016091140170911501841B950BA60B35
:100AA000B70B8093BC059093BD05A093BE05B09392
:100AB000BF056091BC057091BD058091BE05909108
:100AC000BF0524E630E040E050E00E94B22CEE2466
:100AD000E394F12C89019A01AB01BC0183EC95E010
:100AE0000E9452181F910F91FF90EF90089548E2D5
:100AF00050E068E070E084E396E00E94832261E0C9
:100B000084E396E00E94892260E371E084E396E04A
:100B10000E94C82B80910A0190910B01A0910C01B9
:100B2000B0910D01883E23E09207A105B10571F156
:100B30008CF48A309105A105B10511F18436910537
:100B4000A105B10501F10197A105B10559F569E2CA
:100B500071E024C0803A26E8920721E0A207B1059F
:100B6000C1F0803422E492072FE0A207B105A1F082
:100B700080319742A105B105A9F46DE071E00EC086
:100B800062E271E00BC06BE171E008C064E171E00A
:100B900005C066E071E002C06FEF70E084E396E0AC
:100BA0000E94F12B48E250E064E670E084E396E0B6
:100BB0000E9483228091A905813049F028F082307B
:100BC00061F463EF70E005C06BEF70E002C067EFA7
:100BD00070E084E396E00E94F12B47E350E06FE081
:100BE00070E084E396E00E94832262EE70E084E38A
:100BF00096E00E94C82B49E150E06CE070E084E38D
:100C000096E00E9483228091A805823091F038F40A
:100C1000882361F08130B1F46EEB70E00FC0833057
:100C200059F0843079F468E870E008C060ED70E055
:100C300005C06CEA70E002C06AE970E084E396E007
:100C40000E94C82B84E396E00C947827CF92DF9221
:100C5000EF92FF920F931F93CF93DF93CDB7DEB741
:100C60006D970FB6F894DEBF0FBECDBF62E084E390
:100C700096E00E94892284E396E00E94E325809119
:100C8000A905813061F058F0823089F4C0901201DA
:100C9000D0901301E0901401F090150108C0C090AD
:100CA0000E01D0900F01E0901001F09011011A8216
:100CB000FF92EF92DF92CF9286E295E09F938F931F
:100CC0007E018DE0E80EF11CFF92EF920E94662FEC
:100CD000F70101900020E9F78F01015011090E1969
:100CE0001F096801F6E0CF1AD108A601B701CE01AD
:100CF00049960E94572FB701CE0101960E94502FAE
:100D0000B8016750710981E090E08C0F9D1F680F5A
:100D1000791F87010C0D1D1DC8010E94502F8EE206
:100D2000F801808340E050E06AE070E084E396E000
:100D30000E948322B70184E396E00E94032C0E9464
:100D400077050FB6F894DEBF0FBECDBF6D960FB618
:100D5000F894DEBF0FBECDBFDF91CF911F910F91F1
:100D6000FF90EF90DF90CF900895EF92FF920F9356
:100D70001F9326E040E052EC61E070E089E297E0EA
:100D80000E94752A80E696E00E94141D21E04CE343
:100D900062E084E396E00E945E2680E090E00E949C
:100DA0005A318B019C010A5011092109310907337D
:100DB00012442F40310548F460930A0170930B01EF
:100DC00080930C0190930D010CC084E690E0A0E0AC
:100DD000B0E080930A0190930B01A0930C01B093B3
:100DE0000D0184E090E00E945A3160930E017093EF
:100DF0000F01809310019093110180910E01909149
:100E00000F01A0911001B091110140910E0150917C
:100E10000F0160911001709111014130534A614EF0
:100E2000714128F480349244AF40B10560F480E809
:100E30009FE9A5EDB0E080930E0190930F01A09380
:100E40001001B093110188E090E00E945A31609344
:100E500012017093130180931401909315018091F6
:100E6000120190911301A0911401B09115014091CC
:100E700012015091130160911401709115014130DC
:100E8000534A614E714128F480349244AF40B10519
:100E900060F480E494E5A9E8B0E0809312019093B7
:100EA0001301A0931401B09315011092B405109290
:100EB000B5051092B6051092B70584E190E00E9446
:100EC0005A31603671058105910561F480E190E049
:100ED0000E945A316093B4057093B5058093B605AE
:100EE0009093B7058091B4059091B505A091B60592
:100EF000B091B705805C9748A248BE4F8093B0057B
:100F00009093B105A093B205B093B30540E050E0D3
:100F1000BA0183EC95E00E94CB0B2091B005309193
:100F2000B1054091B2055091B305E12CF12C870138
:100F300060E883EC95E00E94941600E010E22FE553
:100F400030EA42E150E060E070E083EC95E00E941E
:100F5000321460910E0170910F01809110019091F7
:100F6000110124E630E040E050E00E94B22C8901FB
:100F70009A01AB01BC0183EC95E00E94521840E05D
:100F800050E060E070E083EC95E00E9454154091E1
:100F90000E0150910F01609110017091110180912B
:100FA000120190911301A0911401B09115018417C1
:100FB0009507A607B707A8F040910E0150910F01C1
:100FC00060911001709111018091120190911301B3
:100FD000A0911401B0911501840F951FA61FB71F92
:100FE00014C080910E0190910F01A0911001B09159
:100FF00011014091120150911301609114017091FF
:101000001501841B950BA60BB70B8093BC05909321
:10101000BD05A093BE05B093BF056091BC0570915E
:10102000BD058091BE059091BF0524E630E040E00B
:1010300050E00E94B22CEE24E394F12C89019A0135
:10104000AB01BC0183EC95E00E94521840E050E0F7
:1010500061E070E083EC95E00E945415609112010C
:1010600070911301809114019091150124E630E0F4
:1010700040E050E00E94B22CA2E0EA2EF12C89015F
:101080009A01AB01BC0183EC95E00E94521840E04C
:1010900050E062E070E083EC95E00E94541584E338
:1010A00096E00E94E32584E396E00E94782761E0C1
:1010B00084E396E00E94892261E070E084E396E098
:1010C0000E948F2262E084E00E94F82880916800EC
:1010D00084608093680080916D008C6080936D00C7
:1010E000789462E085E00E94F82862E086E00E9441
:1010F000F82862E087E00E94F8281F910F91FF9086
:10110000EF900C942606EF92FF920F931F9380911D
:10111000A805843041F468EB7BE080E090E00E9419
:101120006C281092A8058091AF05882309F499C016
:101130000E9426068091A905811115C08091AA05FB
:1011400081112CC060910E0170910F0180911001EE
:101150009091110124E630E040E050E00E94B22C72
:10116000E12CF12C13C08230C9F46091120170910E
:101170001301809114019091150124E630E040E0C4
:1011800050E00E94B22CE2E0EE2EF12C89019A018F
:10119000AB01BC0183EC95E00E94521840910E0116
:1011A00050910F0160911001709111018091120115
:1011B00090911301A0911401B09115018417950726
:1011C000A607B707A8F040910E0150910F0160915A
:1011D0001001709111018091120190911301A09161
:1011E0001401B0911501840F951FA61FB71F14C0DD
:1011F00080910E0190910F01A0911001B091110109
:1012000040911201509113016091140170911501E8
:10121000841B950BA60BB70B8093BC059093BD0563
:10122000A093BE05B093BF056091BC057091BD054C
:101230008091BE059091BF0524E630E040E050E08B
:101240000E94B22CEE24E394F12C89019A01AB01A7
:10125000BC0183EC95E00E9452181092AF051092E9
:10126000A8050E94A3040E945004882309F402C226
:101270008091AE05882309F471C040910A01509114
:101280000B0160910C0170910D0180E090E00E94D3
:10129000603140910E0150910F01609110017091E9
:1012A000110184E090E00E94603180910A019091E8
:1012B0000B01A0910C01B0910D01883E23E0920733
:1012C000A105B10591F17CF48A309105A105B10524
:1012D00011F184369105A105B10511F10197A10520
:1012E000B105C9F52CC0803A26E8920721E0A20793
:1012F000B10501F1803422E492072FE0A207B10585
:10130000F1F080319742A105B10529F580EA96E810
:10131000A1E0B0E018C084E690E0A0E0B0E013C027
:1013200088EE93E0A0E0B0E00EC080E197E2A0E09C
:10133000B0E009C080E492E4AFE0B0E004C08AE02D
:1013400090E0A0E0B0E080930A0190930B01A0939D
:101350000C01B0930D011092AE058CC18091AC05CB
:101360008823D9F08091A905811104C082E080937F
:10137000A90502C01092A9054091120150911301D4
:10138000609114017091150188E090E00E94603135
:101390001092AC051092A8056DC18091AD0588230F
:1013A00009F468C186E00E946729892B11F481E065
:1013B00004C08091A905823019F48093A80558C112
:1013C0008091AA0581114FC080910E0190910F016B
:1013D000A0911001B09111018093B8059093B905C7
:1013E000A093BA05B093BB0580910A0190910B01BF
:1013F000A0910C01B0910D0180930601909307011B
:10140000A0930801B093090180E498E7ADE7B1E04B
:1014100080930E0190930F01A0931001B0931101DE
:1014200083E08093A80581E08093AA058AE090E09C
:10143000A0E0B0E080930A0190930B01A0930C010F
:10144000B0930D0160910E0170910F018091100118
:101450009091110124E630E040E050E00E94B22C6F
:10146000E12CF12CFDC01092AA0540910E01509183
:101470000F016091100170911101405458476D4760
:1014800071404093B4055093B5056093B6057093D1
:10149000B7058091B8059091B905A091BA05B091B2
:1014A000BB0580930E0190930F01A0931001B093A0
:1014B00011018091060190910701A0910801B0915E
:1014C000090180930A0190930B01A0930C01B09342
:1014D0000D0184E08093A80580E190E00E946031D6
:1014E0008091B4059091B505A091B605B091B7056E
:1014F000805C9748A248BE4F8093B0059093B10599
:10150000A093B205B093B30540E650E060E070E010
:1015100084E190E00E9460312091B0053091B105E6
:101520004091B2055091B305E12CF12C870160E8A0
:1015300083EC95E00E94941600E010E22FE530EA7B
:1015400042E150E060E070E083EC95E00E943214EC
:101550006091120170911301809114019091150115
:1015600024E630E040E050E00E94B22C12E0E12E90
:10157000F12C89019A01AB01BC0183EC95E00E943A
:10158000521860910E0170910F018091100190919D
:10159000110124E630E040E050E00E94B22CE12C42
:1015A000F12C89019A01AB01BC0183EC95E00E940A
:1015B000521840910E0150910F01609110017091ED
:1015C00011018091120190911301A0911401B09129
:1015D000150184179507A607B707A8F040910E01DB
:1015E00050910F01609110017091110180911201D1
:1015F00090911301A0911401B0911501840F951FD2
:10160000A61FB71F14C080910E0190910F01A091E9
:101610001001B0911101409112015091130160919C
:10162000140170911501841B950BA60BB70B8093C9
:10163000BC059093BD05A093BE05B093BF05609116
:10164000BC057091BD058091BE059091BF0524E653
:1016500030E040E050E00E94B22CEE24E394F12C04
:1016600089019A01AB01BC0183EC95E00E945218FC
:101670001092AD051F910F91FF90EF900C942606EC
:1016800068E084E396E00E94CA2583EC95E00E941E
:10169000B60B43E062E080EC95E00E947C0B809109
:1016A0000E0190910F01A0911001B0911101409194
:1016B0001201509113016091140170911501841B66
:1016C000950BA60BB70B8093BC059093BD05A0931B
:1016D000BE05B093BF0580910E0190910F01A091BE
:1016E0001001B09111018093B8059093B905A093B2
:1016F000BA05B093BB050895CF93DF93EC01862F15
:1017000069834A8360E00E94F82860E08A810E9431
:10171000F82861E089810E94312961E08A810E9474
:1017200031291882DF91CF9108950F931F93CF93A2
:10173000DF93EC018A810E9467298C0189810E94D4
:101740006729000F111F802BE881EF7094E0E99F5B
:10175000F0011124E80FF11DE65DFA4F80818883C6
:101760008073DF91CF911F910F910895FC0110823A
:1017700011821282138214821582168217821086B9
:10178000E759FF4F40E458E76DE771E0408351832C
:1017900062837383089583599F4FFC014083518373
:1017A0006283738308952F923F924F925F926F925C
:1017B0007F928F929F92AF92BF92CF92DF92EF92E1
:1017C000FF920F931F93CF93DF93CDB7DEB7689748
:1017D0000FB6F894DEBF0FBECDBF502E1C87422E31
:1017E000332E242E652E762E972EFA8AE98A8B8A3E
:1017F00087599F4FDC016D917D918D919C9124E6DD
:1018000030E040E050E00E94B22C822E3D834E83B7
:101810005F83688779878A879B8786017501110FA7
:10182000EE08FE2C87019501A6016E2D7E2D8E2DD2
:101830009E2D0FE10E94B42DA12CEAECBE2EFAE9F8
:10184000CF2EABE3DA2EE12CF12C00E010E00E9469
:10185000DF2CA82CBD80CE80DF80E884F9840A8547
:101860001B850E94592C0FE10E94CF2D59016A015E
:10187000A6019501550F220B322FA90129833A8326
:101880004B835C839501A6016981762F862F962F65
:10189000A82CBD80CE80DF80E884F9840A851B8572
:1018A0000E94EB2D29833D834E835F836887798770
:1018B0008A879B87252D3C85442D532D622D762DBF
:1018C000872D992D2F3FA7E53A07A7E44A07A8EFF0
:1018D0005A07ADE06A07710581059105A9F0A0F0EE
:1018E000211534404B46544F6441710581059105E3
:1018F000B9F0B0F0512CF4E0FC87FBE64F2EA4EFDA
:101900003A2EB4E12B2E09C0512CE8E5EC8717E400
:10191000412E08EF302E8DE0282E612C712C912C59
:10192000A980BD80CE80DF80E884F9840A851B858C
:10193000252D3C85442D532D622D762D872D992DF7
:101940000E94102D2C8B3D8B4E8B5F8B2D873E87FD
:101950004F87588B2D853E854F8558892F3031050F
:101960004105510558F49501A601B701C80104E0ED
:101970000E94B42D0A850E94002E2CC08D859E8564
:10198000AF85B8898B359105A105B10558F129813D
:101990003D814E815F81688579858A859B8502E0DE
:1019A0000E94B42DA980BD80CE80DF80E884F984B8
:1019B0000A851B850E94002E59016A017B01E82FD0
:1019C000192F04E00E94B42D0E2F0E94002E01E07A
:1019D0000E94B42D522E3C87442E352E262E672E83
:1019E000782E992EA980BD80CE80DF80E884F9848E
:1019F0000A851B85252D3C85442D532D622D762D82
:101A0000872D992D0E940E2DF22FA32FB42F952EE6
:101A1000862E772E682E592E05E00E94B42DAF2E0B
:101A2000BA2ECB2ED92CE82CF72C062D152D0E9482
:101A3000002E59016A017B01E82F192F06E00E9450
:101A4000B42D0E2F0E94002E03E00E94B42DAF2E65
:101A5000BA2ECB2ED92CE82CF72C062D152D0E9452
:101A6000EB2D06E00E94B42DA980BD80CE80DF80E2
:101A7000E884F9840A851B850E94102D2C87632E2B
:101A8000742E588FC22ED32EE42EF52E9B899111E1
:101A900005C0C114D104E104F10441F0E0E42E2EAC
:101AA000E2E43E2EEFE04E2E512C04C0212C312CCE
:101AB000210123944601570187E0880C991CAA1C38
:101AC000BB1C8A95D1F7C501B401A20191010E9406
:101AD000262C8D859E85AF85B88967E0880F991F74
:101AE000AA1FBB1F6A95D1F79250A109B109820FB5
:101AF000931FA41FB51FE989FA8980839183A2836C
:101B0000B383C201B1010E94162CA5019401261BCA
:101B1000370B480B590B2483358346835783208624
:101B2000318642865386BB89B1113FC0A980BD80F2
:101B3000CE80DF80E884F9840A851B852C85362DCC
:101B4000472D588D60E070E080E090E00E94592CB5
:101B500051016201E12CF12C00E010E00E94102DF7
:101B600019012A013B014C01A980BD80CE80DF8094
:101B7000E884F9840A851B852C893D894E895F8913
:101B800060E070E080E090E00E94592C59016A0109
:101B90007B018C019101A201B301C4010E94EB2DD4
:101BA00049015A016B017C011BC0A701960160E746
:101BB00077EB8FE090E00E94162C4B015C012D85A5
:101BC0003E854F85588960E078EB8BED97E00E9469
:101BD000162C860E971EA81EB91EC12CD12C76017C
:101BE0009401A501B601C70168960FB6F894DEBF4F
:101BF0000FBECDBFDF91CF911F910F91FF90EF905E
:101C0000DF90CF90BF90AF909F908F907F906F901C
:101C10005F904F903F902F9008952F923F924F9258
:101C20005F926F927F928F929F92AF92BF92CF926C
:101C3000DF92EF92FF920F931F93CF93DF93CDB775
:101C4000DEB76C970FB6F894DEBF0FBECDBF098725
:101C50001A872B873C874D875E87762E672EA98251
:101C6000BF86C88AD98AEA8AFB8A98014B855C8537
:101C70006D857E85872D962D2115E1EC3E07EAE1E5
:101C80004E07EDE35E07E5E06E07710581059105FE
:101C900011F008F056C02F37F0EF3F07FAEF4F076B
:101CA000F2E05F07610571058105910569F060F05B
:101CB0002F3F354D41415E476340710581059105D8
:101CC00011F008F04AC00CC0F0E8F98720EF2A872D
:101CD0003AEF3B8742E04C871D861E86712C612CB3
:101CE000940149815F85688979898A899B89A0E007
:101CF0000E94092E09F06FC0A984BA84CB84DC84C9
:101D0000ED84FE84072D162D20E034E04BE654EFE1
:101D100064E170E080E090E00E94102D122FB32F5C
:101D2000F42FE52FA7E00E94092E21F416E0B0E081
:101D3000F0E0E0E0CF01212E3B2E492E5E2E1C8AE2
:101D40001FC01986F1ECFA872AE12B873DE33C8717
:101D500045E04D871E86712C612C940149815F8579
:101D6000688979898A899B89A0E00E94092E09F0F7
:101D700035C151E05C8BE4E02E2E312C412C512CEE
:101D8000A201910160E070E0CB01A984BA84CB8408
:101D9000DC84ED84FE84072D162D29823A834B8343
:101DA0005C836D837E838F83988760E070E080E042
:101DB00090E00E94592C490149835F87688B798B99
:101DC0008A8B9B8B10E0C12CD12C7601C39480E0D0
:101DD00090E0DC01A4C01C8AA984BA84CB84DC8492
:101DE000ED84FE84072D162D940149815F85688955
:101DF00079898A899B890E94102D222E332E442EA8
:101E0000552E86E0281631044104510420F466E082
:101E1000A62EB12C0BC099E0291697E03906410493
:101E20005104D8F048E0A42E57E0B52EC12CD12C97
:101E3000E12CF12C00E010E0940149815F85688974
:101E400079898A899B890E94102D29873A874B8737
:101E50005C876D877E87782E692EA984BA84CB84AF
:101E6000DC84ED84FE84072D162D940149815F8565
:101E7000688979898A899B890E940E2DF22FA32F68
:101E8000B42F588F698F7A8F8B8FE92F05E00E94CE
:101E9000B42DAF2EBA2ECB2ED88CE98CFA8C0B8DAC
:101EA0001E2F0E94002E59016A017B018C8F192F71
:101EB00006E00E94B42D0C8D0E94002E03E00E94CB
:101EC000B42DAF2EBA2ECB2ED88CE98CFA8C0B8D7C
:101ED0001E2F0E94EB2D06E00E94B42DA984BA8427
:101EE000CB84DC84ED84FE84072D162D0E94102DFA
:101EF000F22FE32F8F2F9E2FA42FB52F11E00097E5
:101F0000A105B10541F030E4C32E32E4D32E3FE009
:101F1000E32EF12C04C0C12CD12C7601C394EC89A2
:101F2000E13089F19C01AD0187E0220F331F441F8E
:101F3000551F8A95D1F72C8B3D8B4E8B5F8BCA0139
:101F4000B901A70196010E94262C97E0220C331CB0
:101F5000441C551C9A95D1F782E0381A4108510863
:101F6000220E331E441E551EC701B6010E94162CB8
:101F70002C893D894E895F89261B370B480B590BED
:101F8000DA01C9010AC0C12CD12C7601C39480E0CA
:101F900090E0DC01212C312C2101E9A9FAA9208251
:101FA00031824282538284839583A683B783C0861D
:101FB000D186E286F386111108C0940149815F85BC
:101FC000688979898A899B890CC029853A854B85DE
:101FD0005C856D857E85872D962D03C051E05C8BD9
:101FE000FBCE6C960FB6F894DEBF0FBECDBFDF916F
:101FF000CF911F910F91FF90EF90DF90CF90BF9006
:10200000AF909F908F907F906F905F904F903F9098
:102010002F9008952F923F924F925F926F927F92EE
:102020008F929F92AF92BF92CF92DF92EF92FF92E8
:102030000F931F93CF93DF93CDB7DEB72F970FB6D4
:10204000F894DEBF0FBECDBF09871A872B873C8768
:102050004D875E871B01A982BF8626013701980143
:102060004B855C856D857E85C1012115A6ED3A07FE
:10207000A1E14A07AEE75A07A3E06A0771058105A7
:10208000910509F0A0F42F37304F4A4F52406105B7
:1020900071058105910509F0B0F440E8498750EFDA
:1020A0005A876AEF6B8772E07C871D8609C01986A4
:1020B000E6EDEA87F1E1FB872EE72C8733E03D87E9
:1020C0001E86212C312C940149815F85B201C30108
:1020D000A0E0A984BA84CB84DC84ED84FE848101F1
:1020E0000E94092E09F0BCC020E033E245E75EEE15
:1020F00064E170E080E090E00E94102D422E532EAB
:10210000642E752E20FF06C08FEF481A580A680A01
:10211000780A06C095E0491651046104710461F023
:10212000AFEF4A1651046104710458F0FEEF4F2ED0
:10213000512C612C712C05C0A6E04A2E512C612C2B
:10214000712CA301920160E070E0CB01A984BA84F4
:10215000CB84DC84ED84FE84810149823A834B8305
:102160005C836D837E838F83988760E070E080E07E
:1021700090E00E94592C49018A01F62EE72EF82F93
:10218000E92F211534404B46544F644171058105B8
:102190009105A1F098F0E2E04E1A5108610871082B
:1021A000A301920160E070E0CB0149823A834B8346
:1021B0005C836D837E838F83988726C09401A801FA
:1021C0006F2D7E2D8F2F9E2F2F3F37454744584F21
:1021D0006D4071058105910509F028F5B2E04B0EBF
:1021E000511C611C711CA301920160E070E0CB01E5
:1021F00049823A834B835C836D837E838F83988788
:10220000A984BA84CB84DC84ED84FE84810160E0FF
:1022100070E080E090E00E94592C49018A01F62E7E
:10222000E72EF82FE92F552466247724ACA1BDA111
:102230004D925D926D927C92139714961D921D9211
:102240001D921C92179718961D921D921D921C921A
:102250001B979401A8016F2D7E2D8F2F9E2F39C0C3
:10226000940149815F85B201C3010E940E2DA0E057
:102270000E94092E31F5940149815F85B201C301A5
:102280000E94102D89019A01D901C8010697A10960
:10229000B109893F9105A105B10598F410E020E04E
:1022A00030E0ECA1FDA100831183228333831482EB
:1022B000158216821782108611861286138621E0F7
:1022C00001C020E030E040E050E060E070E080E0FD
:1022D00090E02F960FB6F894DEBF0FBECDBFDF9112
:1022E000CF911F910F91FF90EF90DF90CF90BF9013
:1022F000AF909F908F907F906F905F904F903F90A6
:102300002F900895DF92EF92FF920F931F93CF9338
:10231000DF93FB01E080F18002811381D481C581CC
:10232000B681D7809701A8016D2F7C2F8B2F9D2D13
:1023300020583A41464051096109710981099109C2
:102340002F373A41464051056105710581059105D8
:1023500009F098F49701A8016D2F7C2F8B2F9D2DEC
:1023600007E00E94B42D208331834283538364832A
:1023700075838683978387E0FDC09701A8016D2F41
:102380007C2F8B2F9D2D35534C40510961097109CC
:10239000810991092F3F34434C4051056105710576
:1023A0008105910509F098F49701A8016D2F7C2F04
:1023B0008B2F9D2D06E00E94B42D20833183428314
:1023C0005383648375838683978386E0D3C09701A4
:1023D000A8016D2F7C2F8B2F9D2D3A564841510916
:1023E00061097109810991092F3F39464841510519
:1023F000610571058105910509F098F49701A8011F
:102400006D2F7C2F8B2F9D2D05E00E94B42D2083F6
:10241000318342835383648375838683978385E006
:10242000A9C09701A8016D2F7C2F8B2F9D2D345DA6
:102430004043510961097109810991092F3F334DC9
:1024400040435105610571058105910509F098F436
:102450009701A8016D2F7C2F8B2F9D2D04E00E94EA
:10246000B42D2083318342835383648375838683B1
:10247000978384E07FC09701A8016D2F7C2F8B2F5D
:102480009D2D385A41465109610971098109910907
:102490002F3F374A41465105610571058105910578
:1024A00009F098F49701A8016D2F7C2F8B2F9D2D9B
:1024B00003E00E94B42D20833183428353836483DD
:1024C00075838683978383E055C09701A8016D2F9C
:1024D0007C2F8B2F9D2D3055434C5109610971097B
:1024E000810991092F3F3F44434C51056105710516
:1024F0008105910509F098F49701A8016D2F7C2FB3
:102500008B2F9D2D02E00E94B42D208331834283C6
:102510005383648375838683978382E02BC09701FE
:10252000A8016D2F7C2F8B2F9D2D305A464851408E
:1025300061097109810991092F3F3F49464851407E
:10254000610571058105910509F098F49701A801CD
:102550006D2F7C2F8B2F9D2D01E00E94B42D2083A9
:10256000318342835383648375838683978381E0B9
:1025700001C080E0DF91CF911F910F91FF90EF900C
:10258000DF900895DF92EF92FF920F931F93CF9306
:10259000DF93FB01E080F18002811381D481C5814A
:1025A000B681D7809701A8016D2F7C2F8B2F9D2D91
:1025B000285938424C415109610971098109910931
:1025C000273938424C415105610571058105910556
:1025D00009F098F49701A8016D2F7C2F8B2F9D2D6A
:1025E00007E00E94B42D20833183428353836483A8
:1025F00075838683978387E001C19701A8016D2FBA
:102600007C2F8B2F9D2D2053314548435109610963
:102610007109810991092F323145484351056105FE
:1026200071058105910509F098F49701A8016D2FB6
:102630007C2F8B2F9D2D06E00E94B42D20833183AB
:1026400042835383648375838683978386E0D6C0F1
:102650009701A8016D2F7C2F8B2F9D2D2056324A7C
:102660004047510961097109810991092F35324AA1
:1026700040475105610571058105910509F098F400
:102680009701A8016D2F7C2F8B2F9D2D05E00E94B7
:10269000B42D20833183428353836483758386837F
:1026A000978385E0ABC09701A8016D2F7C2F8B2FFE
:1026B0009D2D205C3444414E510961097109810905
:1026C00091092F3B3444414E510561057105810547
:1026D000910509F098F49701A8016D2F7C2F8B2F9D
:1026E0009D2D04E00E94B42D2083318342835383C7
:1026F000648375838683978384E080C09701A801F3
:102700006D2F7C2F8B2F9D2D20583948424C5140E6
:1027100061097109810991092F373948424C5140AB
:10272000610571058105910509F098F49701A801EB
:102730006D2F7C2F8B2F9D2D03E00E94B42D2083C5
:10274000318342835383648375838683978383E0D5
:1027500055C09701A8016D2F7C2F8B2F9D2D3351D4
:102760004548534061097109810991092F3F324160
:1027700045485340610571058105910509F098F4BC
:102780009701A8016D2F7C2F8B2F9D2D02E00E94B9
:10279000B42D20833183428353836483758386837E
:1027A000978382E02BC09701A8016D2F7C2F8B2F80
:1027B0009D2D36524A40574061097109810991099E
:1027C0002F3F35424A40574061057105810591050B
:1027D00009F098F49701A8016D2F7C2F8B2F9D2D68
:1027E00001E00E94B42D20833183428353836483AC
:1027F00075838683978381E001C080E0DF91CF916C
:102800001F910F91FF90EF90DF900895EF92FF924C
:102810000F931F93CF93DF93C62FE42E890160E6B9
:1028200070E080E696E00E94281D6C2F80E696E01E
:102830000E94D51CE801F12CCE01801B910B8E1556
:102840009F0534F4699180E696E00E94D51CF4CF90
:1028500080E696E0DF91CF911F910F91FF90EF906E
:102860000C94A01D2F923F924F925F926F927F9295
:102870008F929F92AF92BF92CF92DF92EF92FF9290
:102880000F931F93CF93DF93CDB7DEB761970FB64A
:10289000F894DEBF0FBECDBF3C011801922E3D87DC
:1028A0004E875F87688B798B2701FC01E359FF4FC7
:1028B000A080B180C280D380812CCE0101967C01A2
:1028C000C3010E94D30B84E190E00E94862B6C012F
:1028D0008A85F6018083898581838B8183708283D9
:1028E0008A8183838981848349855A856B857C8528
:1028F000BCE07695679557954795BA95D1F7407F97
:102900008F818F70840F85838E8186838D818783ED
:102910004114510451F4960148E06AE1C3010E9458
:102920000614F301E75AFF4F0CC04A944528B1F44E
:10293000960148E062E2C3010E940614F301EF59D8
:10294000FF4F2082318292828D8583839E8594837E
:102950008F8585839889968389898783C6010E949C
:10296000882B61960FB6F894DEBF0FBECDBFDF9106
:10297000CF911F910F91FF90EF90DF90CF90BF907C
:10298000AF909F908F907F906F905F904F903F900F
:102990002F9008951F93CF93DF931F92CDB7DEB78B
:1029A000162F60E670E080E696E049830E94281DBD
:1029B000612F80E696E00E94D51C4981642F80E655
:1029C00096E00E94D51C80E696E00F90DF91CF91B3
:1029D0001F910C94A01D6115710511F440E204C013
:1029E0006130710521F440E861EB0C94CA1408953C
:1029F000CF93DF93D62F60E670E080E696E00E94EA
:102A0000281D6D2F80E696E00E94D51C80E696E09A
:102A10000E94A01D20E030E041E050E060E670E060
:102A200080E696E00E949E1D80E696E00E947D1C56
:102A3000892B31F080E696E00E94851CC82FF4CFE8
:102A40008C2FDF91CF910895EF92FF920F931F93F8
:102A5000CF93DF931F92CDB7DEB77C018B0163E08C
:102A600049830E94F814B80177274981413051F415
:102A700041E050E0062E01C0440F0A94EAF7409569
:102A8000482307C041E050E001C0440F6A95EAF7CF
:102A9000482B63E0C7010F90DF91CF911F910F91F9
:102AA000FF90EF900C94CA14EF92FF920F931F9334
:102AB000CF93DF931F92CDB7DEB78C01262F7A011B
:102AC000205F622F29830E94F814482F4C7F2981B0
:102AD00082E0E816F10449F0E3E0EE16F10439F083
:102AE000EA94EF2829F4416003C0426001C04360CA
:102AF000622FC8010F90DF91CF911F910F91FF902E
:102B0000EF900C94CA14DF92EF92FF920F931F93F1
:102B1000CF93DF93EC017B018A0120E1D22ED60E08
:102B20006D2D0E94F8140115110511F48F7D04C05C
:102B30000130110509F48062482F6D2DCE010E94ED
:102B4000CA14F701FF27EE0FFF1FEC0FFD1F1287BE
:102B50000187DF91CF911F910F91FF90EF90DF9050
:102B60000895EF92FF920F931F93CF93DF93EC01A1
:102B700040E860E10E94CA1440E861E1CE010E9491
:102B8000CA1440E862E1CE010E94CA1440E863E141
:102B9000CE010E94CA1440E864E1CE010E94CA142A
:102BA00040E865E1CE010E94CA1440E866E1CE012A
:102BB0000E94CA1440E867E1CE010E94CA144CE0AA
:102BC00060E1CE010E94CA144CE061E1CE010E9496
:102BD000CA144CE062E1CE010E94CA144CE063E1E9
:102BE000CE010E94CA144CE064E1CE010E94CA14D6
:102BF0004CE065E1CE010E94CA144CE066E1CE01D2
:102C00000E94CA144CE067E1CE010E94CA14E12C74
:102C1000F12C00E010E22FE530EA42E150E060E004
:102C200070E0CE010E943214EE24E394F12C2FE5E3
:102C300030EA42E150E060E070E0CE010E943214E0
:102C40001A8619861C861B861E861D86188A1F8674
:102C50001A8A198A1C8A1B8A81E090E09E8B8D8BD0
:102C6000988F8F8B40E050E060E070E0CE010E94D2
:102C7000831540E050E061E070E0CE010E948315D2
:102C800040E050E062E070E0CE010E94831540E039
:102C900050E063E070E0CE010E94831540E050E018
:102CA00064E070E0CE010E94831540E050E065E0F2
:102CB00070E0CE010E94831541E050E066E070E0D4
:102CC000CE010E94831541E050E067E070E0CE0144
:102CD0000E9483158E01E12CF12CF801118E128EC9
:102CE000138E148E158E168E178E10A240E0B7012B
:102CF000CE010E942415FFEFEF1AFF0A085F1F4F55
:102D000088E0E816F10449F760E070E0CE010E9427
:102D1000EB1440E861EBCE01DF91CF911F910F9151
:102D2000FF90EF900C94CA146F927F928F929F92B3
:102D3000AF92BF92CF92DF92EF92FF920F931F93C9
:102D4000CF93DF931F92CDB7DEB73C0149015A0103
:102D50006701780180E696E069830E94141D69810D
:102D6000462F407C426167EBC3010E94CA14811464
:102D70009104A104B10409F44DC06FE0C3010E94A5
:102D8000F814482F4F7321E8821623EC920629ECA1
:102D9000A20621E0B20640F4F301E759FF4F80821A
:102DA0009182A282B38232C0D501C4018158934C72
:102DB000A94CB1408038934CA94CB14068F4F30160
:102DC000E759FF4FB694A794979487948082918295
:102DD000A282B38240641AC0950184010150174851
:102DE0002349334001151A452246324078F4F30155
:102DF000E759FF4F52E0B694A794979487945A9559
:102E0000D1F780829182A282B38240686FE0C301D1
:102E10000E94CA14F301E359FF4FC082D182E282BB
:102E2000F382C3010F90DF91CF911F910F91FF901B
:102E3000EF90DF90CF90BF90AF909F908F907F905A
:102E40006F900C94B115EF92FF921F93CF93DF9385
:102E50001F92CDB7DEB77C01162F105F612F49831B
:102E60000E94F8144981413019F4482F406402C08F
:102E7000482F4F7B612FC7010F90DF91CF911F919A
:102E8000FF90EF900C94CA14EF92FF920F931F9350
:102E9000CF93DF9300D01F92CDB7DEB78C017B01BB
:102EA0006830710590F4FB01EC5CFF4F0C94482CEA
:102EB0005CE20BC054E309C05CE307C054E405C006
:102EC0005CE403C054E501C05CE5652FC8012B83B9
:102ED0004A8359830E94F8142B814A81598196E0D4
:102EE000E916F1042CF48378222371F08C600CC075
:102EF000F6E0EF16F10419F4887F842B0AC097E0FE
:102F0000E916F10431F48F78E0E14E9F900111242D
:102F1000822B482F652FC8010F900F900F90DF91E3
:102F2000CF911F910F91FF90EF900C94CA143F9294
:102F30004F925F926F927F928F929F92AF92BF92C9
:102F4000CF92DF92EF92FF920F931F93CF93DF9375
:102F5000CDB7DEB760970FB6F894DEBF0FBECDBF1A
:102F60003C012B01A982BA82CB82DC82ED82FE82F7
:102F70000F83188729873A874B875C87FCA0EDA0D1
:102F8000DA2CAC2CCD803E80902E89859A85AB853D
:102F9000BC858D879E87AF87B88B84E190E00E94C7
:102FA000862B8C0195E0941588F1EE85D801EC9381
:102FB000FD851196FC93642D660F660F660F645DA8
:102FC000C3010E94F8148C7F9A2D9370892BD8012D
:102FD00012968C9312971396BC9213971496DC92C8
:102FE0008D859E85AF85B8892CE0B695A795979578
:102FF00087952A95D1F7807F992D9F70980FF801BA
:1030000095833682DC2CC78248E001C040E0F8E0BE
:103010004F16510468F5F201E45CFF4F0C94482C04
:1030200098016AE20EC0980162E30BC098016AE35E
:1030300008C0980162E405C098016AE402C09801E2
:1030400062E5C3010E940614482DB201C3010E942B
:10305000231708C04D2D6AE502C04D2D6BE5C30155
:103060000E94CA142E2D4F2DB201C3010E94441795
:10307000C80160960FB6F894DEBF0FBECDBFDF91DA
:10308000CF911F910F91FF90EF90DF90CF90BF9065
:10309000AF909F908F907F906F905F904F903F90F8
:1030A0000C94882B2F923F924F925F926F927F9257
:1030B0008F929F92AF92BF92CF92DF92EF92FF9248
:1030C0000F931F93CF93DF93CDB7DEB7EA970FB679
:1030D000F894DEBF0FBECDBF2C0109A31AA32BA30A
:1030E0003CA34DA35EA36FA378A71701EDA68E2D79
:1030F000863008F0C8C198014BA15CA16DA17EA1EA
:103100008FA198A5AFEF0E94F42D2E373A4146408B
:103110005105610571058105910509F058F480E8B4
:1031200089A38AE18AA386E08BA31CA21DA21EA20A
:103130001FA218A629A13AA14BA15CA16DA17EA155
:103140008FA198A52F3F354D41415E4763407105E2
:103150008105910571F068F08FEF89A385ED8AA351
:1031600081E18BA38EE78CA383E08DA31EA21FA217
:1031700018A679A08AA09BA0DCA0EDA0FEA00FA1BC
:1031800018A5272D382D492D5D2DB701C8012038F0
:1031900030464D485E49624071058105910509F050
:1031A00008F404C1F201A0E0218D328D438D548DCD
:1031B000658D768D878D90A1203830464D485E49CB
:1031C000624071058105910531F028F08DA5A817A1
:1031D00011F081E043C3AF5F3896A83029F741E092
:1031E000B101C2010E94241509A11AA12BA13CA181
:1031F0004DA15EA16FA178A5D101BB2783E0AA0FE5
:10320000BB1F8A95E1F7A40DB51DFD01799659966E
:103210000C9311832283338344835583668377839E
:10322000CE010D969F938F93812C912CA12CB12CC4
:10323000C12CD12CE12CF12CC2010E940D0E28AB27
:1032400039AB4AAB5BAB6CAB7DAB8EAB9FAB41019B
:10325000880C991C840C951CD4011996ED90FC9057
:103260001A9789019A01AB01BC01C2010E94321474
:103270000F900F905FA64EA632011CA61BA6F4016C
:103280003996FAAFE9AFCE0101969AA789A7D30183
:103290005996DC9059975A96CC905A975B968C9099
:1032A0005B975C969C905C975D96EC905D975E96C4
:1032B000FC905E975F960C915F9790961C912D2DD8
:1032C0003C2DA401B701C801A0E00E94092E09F419
:1032D00050C0EEA5FFA581859285A9ADBAADED914F
:1032E000FC918E179F0709F044C0D98ECA8E8B8E31
:1032F0009C8EED8EFE8E0F8F18A3BE01675E7F4FF2
:10330000C2010E94821188AF098D1A8D2B8D3C8DD0
:103310004D8D5E8D6F8D78A1BAA5BF93E9A5EF9312
:1033200088A899A8AAA8BBA8CCA8DDA8EEA8FFA841
:10333000C2010E940D0E882483940F900F90FDA56A
:103340008BA5F813812C8F9298AD9F93A980BA809A
:10335000CB80DC80ED80FE800F81188529853A8541
:103360004B855C856BA57CA5C2010E9497170F90C9
:103370000F90ABA5BCA51196BCA7ABA7B8E06B0E90
:10338000711CEEA5FFA53296FFA7EEA78BA59CA505
:10339000069709F07CCFF101EE0FFF1FE40DF51D3C
:1033A00061857285C2010E94EB1457C2D101BB270F
:1033B000F3E0AA0FBB1FFA95E1F7A40DB51DFD01BF
:1033C000799659967C9281829282D382E482F582A8
:1033D0000683178341E0B101C2010E942415410117
:1033E000880C991CF201E80DF91DE184F284F201C8
:1033F000E114F10469F4E75AFF4F00811181228141
:1034000033814481558166817781E12CF12C0AC09A
:10341000EF59FF4F00811181228133814481558111
:1034200066817781C2010E943214BE016F5D7F4FB9
:10343000C2010E948211782EF201E80DF91D8185EA
:10344000928509A11AA12BA13CA14DA15EA16FA15A
:10345000F201892B19F4E75AFF4F02C0EF59FF4FD1
:1034600080809180A280B380C480D580E680F78080
:1034700078A5CE010D969F938F93C2010E940D0EE9
:103480000F900F90D5C129A13AA14BA15CA16DA1CC
:103490007EA18FA198A5AFEF0E94F42D2639384266
:1034A0004C415105610571058105910509F058F4FC
:1034B00080E889A38AE18AA386E08BA31CA21DA2CF
:1034C0001EA21FA218A629A13AA14BA15CA16DA121
:1034D0007EA18FA198A52F3F354D41415E476340A6
:1034E00071058105910571F068F08FEF89A385ED75
:1034F0008AA381E18BA38EE78CA383E08DA31EA218
:103500001FA218A6E9A1EDA7FAA1FEA78BA188AB7F
:103510006CA07DA08EA09FA0F20196E02916310438
:1035200009F0A2C0EF5AFF4F2081318142815381BF
:103530006481758186819781A0E00E94092E09F43B
:1035400062C0D201AF59BF4FBCA7ABA7BC91BAAB09
:10355000EBA5FCA5F181FBABABA5BCA51296BC917C
:10356000BCABEBA5FCA5F381FDABABA5BCA514964C
:10357000BC91BEABEBA5FCA5F581FFABABA5BCA593
:103580001696BC91B8AFEBA5FCA5F781F9AF88A55D
:1035900089ABADA4BEA4C8A8D62CE72CF82C092D65
:1035A000182F2AA93BA94CA95DA96EA97FA98B2F29
:1035B0009F2F0E940E2DA0E00E94092E09F009CE37
:1035C0002AA93BA94CA95DA96EA97FA988AD99AD8F
:1035D0000E94102D217030E040E050E060E070E08B
:1035E00080E090E0A0E00E94092E09F0F2CDF20107
:1035F000E75BFF4FA082B182C282638274828582C0
:1036000096821783A9C0F201E75BFF4F8DA58083E7
:103610009EA59183A8A9A2836382748285829682E3
:1036200088A58783BE016F5D7F4FC2010E94C212D1
:10363000782E09A11AA12BA13CA14DA15EA16FA1D9
:1036400078A5CE010D969F938F93812C912CA12C60
:10365000B12CC12CD12CE12CF12CC2010E940A10FA
:10366000EE24E394F12CD6C0E75BFF4F208131813B
:10367000428153816481758186819781A0E00E9497
:10368000092E09F48AC07896FCA7EBA7F081FAAB63
:10369000ABA5BCA51196BC91BBABEBA5FCA5F2817B
:1036A000FCABABA5BCA51396BC91BDABEBA5FCA533
:1036B000F481FEABABA5BCA51596BC91BFABEBA549
:1036C000FCA5F681F8AFABA5BCA51796BC91B9AF28
:1036D000E8A5E9ABADA4BEA4C8A8D62CE72CF82C6D
:1036E000092D1E2F2AA93BA94CA95DA96EA97FA966
:1036F0008F2F9B2F0E940E2DA0E00E94092E09F013
:1037000068CD2AA93BA94CA95DA96EA97FA988AD5E
:1037100099AD0E94102D217030E040E050E060E053
:1037200070E080E090E0A0E00E94092E09F051CD09
:10373000D101BB2703E0AA0FBB1F0A95E1F7A40D37
:10374000B51DFD0179965996AC92B182C282638211
:103750007482858296821783BE016F5D7F4FC2019E
:103760000E94C212782EEBA5FCA580809180A280D9
:10377000B380C480D580E680F78009A11AA12BA16F
:103780003CA14DA15EA16FA178A5CE010D969F939E
:103790008F93C2010E940A1044C0D101BB2733E0BD
:1037A000AA0FBB1F3A95E1F7A40DB51DFD0179964F
:1037B0008DA559968C939EA59183A8A9A283638217
:1037C00074828582968288A58783BE016F5D7F4F54
:1037D000C2010E94C212782E09A11AA12BA13CA1FC
:1037E0004DA15EA16FA178A5CE010D969F938F93F9
:1037F000812C912CA12CB12CC12CD12CE12CF12CA1
:10380000C2010E940A10F101EE0FFF1FE40DF51D29
:10381000E184F28489019A01AB01BC01C2010E94DA
:1038200032140F900F9041E0B101C2010E942415A3
:103830001F927F92812CAD84BE84CF84D888E98882
:10384000FA880B891C892D893E894F89588DB101D1
:10385000C2010E9497170F900F9080E0EA960FB672
:10386000F894DEBF0FBECDBFDF91CF911F910F91B6
:10387000FF90EF90DF90CF90BF90AF909F908F9090
:103880007F906F905F904F903F902F900895CF93CF
:10389000CFB7F89480915F06811127C0E3E6F6E088
:1038A0008491EFE4F6E09491E82FF0E0EE0FFF1F33
:1038B000EF57F94FA591B4918C91892321F461E0E0
:1038C0008AE00E94312961E08AE00E94F8288CB5E4
:1038D00080618CBD8CB580648CBD61E08DE00E9400
:1038E000F82861E08BE00E94F82880915F068F5FE6
:1038F00080935F06CFBFCF9108958091900690E0AE
:1039000020919106821B9109089520919106809142
:103910009006281750F4E22FF0E0EE56F94F808120
:1039200090E02F5F2093910608958FEF9FEF089509
:10393000E091910680919006E81730F4F0E0EE56A1
:10394000F94F808190E008958FEF9FEF08950895DB
:10395000CF92DF92EF92FF920F931F93CF93DF935B
:103960007C01CB018A0120916C06222389F0EB01B6
:103970006B01C40ED51ECC15DD0569F06991D70128
:10398000ED91FC910190F081E02DC7010995F3CFF5
:10399000642F0E945C1EC801DF91CF911F910F918F
:1039A000FF90EF90DF90CF900895CF93DF931F9219
:1039B000CDB7DEB7698320916C062223D1F0209128
:1039C0006D06203240F021E030E0FC013383228399
:1039D00080E090E015C080916E06E82FF0E0E1599C
:1039E000F94F998190838F5F80936E0680936D0667
:1039F00005C061E0CE0101960E945C1E81E090E06E
:103A00000F90DF91CF910895FC011382128248EE4E
:103A100053E060E070E044835583668377838AE4F3
:103A200095E09183808308951092910610929006FC
:103A300010926E0610926D060C94A71D81E0809383
:103A40006C0660938F0610926E0610926D060895B4
:103A50000C941E1D0F93062F21E040916D066FE61A
:103A600076E080918F060E94091E10926E061092D9
:103A70006D0610926C060F9108958F929F92AF92EF
:103A8000BF92CF92DF92EF92FF920F931F93CF934B
:103A9000DF93EC01F62ED42E48015901EE2019F1E6
:103AA0000E941E1D1E2D143008F013E01150B8F0B6
:103AB000E881F98128E0129FB0011124A501940149
:103AC00004C056954795379527956A95D2F7CA0150
:103AD000B9010190F081E02DCE010995E7CF60E0BA
:103AE000CE010E942A1D4D2D413208F040E22C2DBE
:103AF00062E976E08F2D0E94C51D10929106809399
:103B00009006DF91CF911F910F91FF90EF90DF9082
:103B1000CF90BF90AF909F908F900895CF92EF92EB
:103B20000F931F93C22EE12C00E010E098010E9439
:103B30003D1D1F910F91EF90CF9008950C948E1D15
:103B400061E00C942A1D80E696E00C94041D10920E
:103B50001F0781E080931D0710921C0761E082E13E
:103B60000E94312961E083E10E943129E9EBF0E014
:103B700080818E7F808380818D7F808380E28093AF
:103B8000B80085E48093BC000895413208F03FC03E
:103B900090911F079111FCCF91E090931F07209304
:103BA0001D072FEF2093B2061092F706240F2093E3
:103BB000F60690931E0790911E07880F892B80931D
:103BC0001E0780911C07813041F410921C078091E0
:103BD0001E078093BB0085EC01C085EE8093BC007E
:103BE00080911F078130E1F38091F706841710F46C
:103BF0004091F70628EF36E0FB01D9018A2F821B9E
:103C0000841718F48D918193F9CF842F089580E063
:103C100008950F93413208F046C090911F0791110B
:103C2000FCCF92E090931F0700931D079FEF9093A6
:103C3000B2061092F7064093F606FB0168EF76E0B5
:103C4000DB019A2F961B941718F491919D93F9CF4D
:103C500010921E0790911E07880F892B80931E07D4
:103C600080911C07813041F410921C0780911E073F
:103C70008093BB0085EC01C085EE8093BC002223BD
:103C800021F080911F078230E1F38091B2068F3FCF
:103C900061F08091B206803251F08091B20680339B
:103CA00041F483E007C081E005C080E003C082E00A
:103CB00001C084E00F910895613298F420911F07AC
:103CC000243089F46093D406FC0186ED96E0DC0193
:103CD0002A2F281B261718F421912D93F9CF80E065
:103CE000089581E0089582E0089585ED8093BC00F9
:103CF0008091BC0084FDFCCF10921F07089585ECD5
:103D00008093BC0010921F0708951F920F920FB668
:103D10000F9211242F933F934F935F936F937F9351
:103D20008F939F93AF93BF93EF93FF938091B900CD
:103D3000887F803609F49CC068F5883209F45BC03E
:103D400090F4803109F454C038F4882309F4F5C0A4
:103D5000883009F44DC0F5C0883109F44CC0803278
:103D600009F45DC0EEC0803409F468C048F48033C3
:103D700009F455C0883309F0E4C08093B206A8C0A6
:103D8000803509F44FC0883509F45DC0883409F0E6
:103D9000D8C0D5C0883909F4C6C0A8F4883709F45A
:103DA00067C038F4883609F463C0803709F460C00E
:103DB000C8C0883809F4B7C0803909F45FC08038BA
:103DC00009F0BFC05BC0803B09F485C038F4803A7D
:103DD00009F466C0883A09F47EC0B3C0803C09F497
:103DE000A6C0883C09F4A3C0883B09F489C0A9C0D7
:103DF00080911E0710C09091F7068091F6069817E3
:103E000070F5E091F70681E08E0F8093F706F0E001
:103E1000E850F94F80818093BB0085EC85C080938A
:103E2000B2068DC0E091F70681E08E0F8093F70611
:103E30008091BB00F0E0E850F94F80839091F70645
:103E40008091F6066DC0E091F70681E08E0F8093B9
:103E5000F7068091BB00F0E0E850F94F8083809135
:103E60001D0781116CC081E080931C0784EA60C04B
:103E700083E080931F071092B306CFCF8091B306E3
:103E8000803208F050C0E091B30681E08E0F80933D
:103E9000B3068091BB00F0E0EC54F94F8083BDCFB6
:103EA0008091B306803230F4E091B306F0E0EC5438
:103EB000F94F10820E94751E6091B30670E0E09188
:103EC0001807F091190784EB96E009951092B30654
:103ED0000E947F1E36C084E080931F071092D50693
:103EE0001092D406E0911A07F0911B070995809172
:103EF000D406811105C081E08093D4061092D606C5
:103F0000E091D50681E08E0F8093D506F0E0EA526D
:103F1000F94F80818093BB009091D5068091D406A3
:103F2000981708F47ACF85E88093BC000AC085EC26
:103F30008093BC0010921F0704C01092B2060E942A
:103F4000751EFF91EF91BF91AF919F918F917F91DE
:103F50006F915F914F913F912F910F900FBE0F90F6
:103F60001F9018952F923F924F925F926F927F927F
:103F70008F929F92AF92BF92CF92DF92EF92FF9279
:103F80000F931F93CF93DF9300D000D0CDB7DEB750
:103F90004C017C836B836A015901C8018701AC0124
:103FA0004C195D0957FF03C0519541955109950181
:103FB0006B817C81261B370B37FF03C03195219520
:103FC000310922242394312C2417350714F0212C95
:103FD000312C2114310459F03A2D2B2D5C01832F03
:103FE000922F3B812C81DC82CB82C32ED22EAB81DF
:103FF000BC81AA16BB065CF43C2D2D2D6C01832FD1
:10400000922F3B812C81BC82AB82A32EB22E250144
:10401000EB81FC814E1A5F0A3C016C187D0877FE2B
:1040200003C0719461947108720157FE03C0FFEFE1
:10403000EF1AFF0AF594E794C816D9062CF421E08C
:1040400030E03A83298324C06FEF7FEF7A8369835E
:104050001FC0D401ED91FC910480F581E02D980101
:1040600021143104D9F04B815C81B601C40109955A
:10407000E618F708F7FE06C0E981FA81CE0EDF1ECA
:10408000E40CF51C2B813C812F5F3F4F3C832B833D
:104090006B817C81A616B706E4F604C0A6016B818D
:1040A0007C81E4CF0F900F900F900F90DF91CF9114
:1040B0001F910F91FF90EF90DF90CF90BF90AF9046
:1040C0009F908F907F906F905F904F903F902F9038
:1040D00008956F927F928F929F92AF92BF92CF92EC
:1040E000DF92EF92FF920F931F93CF93DF93EC0138
:1040F0005B016A0139014801E881F9810284F38595
:10410000E02D87010995E881F981A601480D591D27
:10411000415051090284F385E02D9301B501CE0190
:104120000995E881F9810084F185E02D9401A601CB
:10413000B501CE010995E881F981B501660D771DBC
:10414000615071090084F185E02D9401A601CE0132
:104150000995DF91CF911F910F91FF90EF90DF9024
:10416000CF90BF90AF909F908F907F906F90089569
:10417000EF92FF920F931F93DC01ED91FC91240FBE
:10418000351F215031090680F781E02D7801890122
:104190009B0109951F910F91FF90EF900895EF9269
:1041A000FF920F931F93DC01ED91FC91260F371FB7
:1041B000215031090680F781E02D78018A010995A7
:1041C0001F910F91FF90EF9008956F927F928F92C1
:1041D0009F92AF92BF92CF92DF92EF92FF920F9396
:1041E0001F93CF93DF935C014A0169013801EB0112
:1041F000C60ED71ECC15DD0574F4D501ED91FC91EA
:104200000084F185E02D87019301A401BE01C50161
:1042100009952196EFCFDF91CF911F910F91FF90DC
:10422000EF90DF90CF90BF90AF909F908F907F9056
:104230006F900895EF92FF920F931F93DC01ED9121
:10424000FC9111971A960D911C911B9718962D9120
:104250003C9119970684F785E02D7B0140E050E002
:1042600060E070E009951F910F91FF90EF90089525
:104270000895FC01138212828AE595E09183808380
:10428000758364835783468371876087538742872A
:10429000158A158614861786168621E0248B8FEFE3
:1042A0009FEF938B828B918B808B268B08952F921F
:1042B0003F924F925F926F927F928F929F92AF92B6
:1042C000BF92CF92DF92EF92FF920F931F93CF9303
:1042D000DF93CDB7DEB72C970FB6F894DEBF0FBED5
:1042E000CDBF9C878B873A0118870F83FA86E986B2
:1042F000CD82DC0118968D919C91199768177907EA
:104300000CF094C01A968D919C911B9748175907F1
:104310000CF08CC08C2C912CCB01B6E0CB9E800D88
:10432000911D1124181619060CF080C0C40113E069
:10433000880F991F1A95E1F7840F951F1816190613
:104340000CF074C0F5E02F9F200111245B016B017C
:104350001C8292012A5C3E4F2901461A570A3C8171
:10436000353031F0F201EA0DFB1D44914B8301C061
:104370001B827A82698213011E828B8180FF13C0A7
:10438000AB85BC85ED91FC91BD81B13031F40480E9
:10439000F581E02D2F81388519C00684F785E02D41
:1043A000EF80F8841EC0E985FA852F813885E217F1
:1043B000F307F9F0AB85BC85ED91FC91BD81B1307F
:1043C00059F40480F581E02D29853A85A101B501D4
:1043D0008B859C8509950DC00684F785E02DE984C1
:1043E000FA848401940149815A81B6018B859C85A8
:1043F0000995EB81E695EB83FE81FF5FFE832981C2
:104400003A81280D391D3A8329833FEF231A330A55
:10441000F83009F0B2CF4C814F5F4C83C80CD91CE7
:104420008FEFA81AB80A463009F099CF2C960FB62C
:10443000F894DEBF0FBECDBFDF91CF911F910F91DA
:10444000FF90EF90DF90CF90BF90AF909F908F90B4
:104450007F906F905F904F903F902F900895CF92F4
:10446000EF92FF920F931F93CF93DF93EC01262FD0
:104470006A3049F42C898E859F8538E0239F800D12
:10448000911D112432C06D30A1F1EA88FB880889A2
:1044900019894E855F856C857D85CC880E94572162
:1044A0002C89422F50E08C859D8536E0239F800D1E
:1044B000911D11249D878C872E892223D1F06AEFCC
:1044C00064039001659F300D112468857985260F5E
:1044D000371F281739076CF403E0440F551F0A955E
:1044E000E1F78E859F85840F951F9F878E871D8698
:1044F0001C8681E090E0DF91CF911F910F91FF909A
:10450000EF90CF900895FC017587648757874687A1
:104510000895611101C061E0FC01648B0895FC0104
:10452000738B628B718B608B0895FC018589089574
:10453000FC01808591850895FC018285938508950D
:104540000F931F93CF93DF93EC018D89823061F03D
:104550008330D9F0813009F0C8C0EC81FD81E41BC3
:10456000F50B3197DB0118C08C819D81DC01A61B06
:10457000B70BBD018E819F81FC01E41BF50BAF01E0
:1045800041505109621B730BB0C0AE81BF81A61BA5
:10459000B70BA21BB30BFA01F7FD05C18C819D81FE
:1045A000E817F9070CF0FFC0B7FF04C02A0F3B1F44
:1045B000A0E0B0E08E819F81AD01420F531F8417B0
:1045C00095071CF49C012A1B3B0B121613060CF0DA
:1045D000EAC0422F8A2F86958695869590E8899F16
:1045E000E00DF11D1124EA5DFE4FA77069F158E05E
:1045F0005A1B852F90E0EC01C25EDE4F68812517C3
:1046000060F4DC01A21BB1098FEF90E00A2E02C01A
:10461000959587950A94E2F768230130110539F0E2
:1046200048F00230110551F48081862706C0808150
:10463000862B03C06095808186238083451708F40C
:10464000B2C0451BE058FF4F4830A0F102301105C1
:10465000A9F4DF01842F9C9190959C93A058BF4FA3
:1046600088508830C0F788EF840F869586958695A8
:10467000B0E88B9FE00DF11D112419C081E00130DD
:10468000110509F080E0982F9195EF01842F988310
:10469000C058DF4F88508830D0F788EF840F869558
:1046A0008695869590E8899FE00DF11D1124E058CC
:1046B000FF4F4770442309F476C0A42FB0E0AA5EF0
:1046C000BE4F9C910130110541F050F002301105B0
:1046D00009F069C08081892706C08081892B03C0C9
:1046E00090958081892380835EC057FD5CC08E8158
:1046F0009F81481759070CF056C077FF04C0260F5A
:10470000371F60E070E08C819D81FB01E20FF31F99
:104710008E179F071CF49C01261B370B12161306DD
:104720000CF041C0CA0157FD0796E3E095958795C7
:10473000EA95E1F79695982F8827979587958A5D52
:104740009E4F860F971F4770552761E070E001C0AC
:10475000660F4A95EAF7462F0130110541F088F0BF
:104760000230110501F5FC01280F391F15C0FC01AD
:10477000280F391FE217F307B1F08081842B819352
:10478000F9CF6095FC01280F391FE217F30759F0A4
:10479000808186238193F9CFE217F30721F080818E
:1047A00084278193F9CFDF91CF911F910F910895C5
:1047B0000F931F93CF93DF93FC018589823069F0BB
:1047C0008330E1F0813009F082C0C481D581C41BFF
:1047D000D50BC21BD30BDB0117C084819581DC0193
:1047E000A61BB70BBD016150710986819781DC0161
:1047F000A41BB50BAD01421B530B69C0A681B78149
:10480000A61BB70B1197EA01B7FD08C186819781F6
:10481000A817B9070CF002C1D7FF04C02C0F3D1F29
:10482000C0E0D0E084819581AE01420F531F841710
:1048300095071CF49C012C1B3D0B121613060CF063
:10484000EDC0CD01B7FD079643E0959587954A9554
:10485000E1F79695982F8827979587958A5D9E4FC3
:104860008C0F9D1FA770BB2741E050E00A2E01C0AE
:10487000440F0A94EAF7642F0130110549F098F0CB
:104880000230110509F0CAC0FC01280F391F17C0FA
:10489000FC01280F391FE217F30709F4BFC080811C
:1048A000862B8193F8CF4095FC01280F391FE21722
:1048B000F30709F4B3C0808184238193F8CFE21712
:1048C000F30709F4ABC0808186278193F8CF77FD89
:1048D000A5C084819581681779070CF09FC057FFA8
:1048E00004C0240F351F40E050E086819781FA0113
:1048F000E20FF31F8E179F071CF49C01241B350B3E
:10490000121613060CF08AC0522F842F86958695B6
:104910008695FB01B0E88B9FE00DF11D1124EA5D47
:10492000FE4F477069F168E0641B862F90E0EC0150
:10493000C25EDE4F4881261760F4DC01A21BB1097C
:104940008FEF90E00A2E02C0959587950A94E2F7C2
:1049500048230130110539F048F00230110551F4B7
:104960008081842706C08081842B03C0409580818C
:1049700084238083561708F451C0561BE058FF4F1C
:104980005830A0F102301105A9F4DF01852F9C9168
:1049900090959C93A058BF4F88508830C0F788EFFF
:1049A000850F869586958695B0E88B9FE00DF11D65
:1049B000112419C081E00130110509F080E0982F21
:1049C0009195EF01852F9883C058DF4F885088302C
:1049D000D0F788EF850F86958695869590E8899F14
:1049E000E00DF11D1124E058FF4F57705523B1F031
:1049F000A52FB0E0AA5EBE4F9C910130110539F0A1
:104A000048F00230110551F48081892706C0808169
:104A1000892B03C09095808189238083DF91CF917A
:104A20001F910F910895CF92DF92EF92FF920F9313
:104A30001F93CF93DF937C018B01EA01690177FD1E
:104A4000A0C00E949822081719070CF09AC0D7FD41
:104A500098C0C7010E949C22C817D9070CF091C0CA
:104A6000C7010E949522823009F07FC0F70184813E
:104A700095819C01201B310B890101501109868110
:104A80009781FC01EC1BFD0BEF0121970BC08130DE
:104A900049F4F701848195818C1B9D0BE8018C0101
:104AA00001501109F1E0CF16D10431F010F132E0DC
:104AB000C316D104E1F165C0FE01D7FD379683E04E
:104AC000F595E7958A95E1F7F695FE2FEE27F79590
:104AD000E795E00FF11FEA5DFE4FC770DD2781E02B
:104AE00090E00C2E01C0880F0A94EAF79081982B71
:104AF0003AC0FE01D7FD3796A3E0F595E795AA9554
:104B0000E1F7F695FE2FEE27F795E795E00FF11FF9
:104B1000EA5DFE4FC770DD2781E090E00C2E01C0FA
:104B2000880F0A94EAF78095908198231CC0FE01B3
:104B3000D7FD379663E0F595E7956A95E1F7F69529
:104B4000FE2FEE27F795E795E00FF11FEA5DFE4F88
:104B5000C770DD2781E090E00C2E01C0880F0A9419
:104B6000EAF79081982790830CC0833009F08FCFAB
:104B7000F70186819781801B910B8E01EC012197B3
:104B800091CFDF91CF911F910F91FF90EF90DF9028
:104B9000CF9008951F93CF93DF93EC01162F40E43D
:104BA00050E060E870E00E94392182E795E0998347
:104BB00088838FEF898F8D8F8B8F8A8F1C8FDF91EA
:104BC000CF911F91089580E094E0E6E2F1E0DF01EB
:104BD0009C011D9221503040E1F70895FC01868D23
:104BE000882339F06EBD00000DB407FEFDCF8EB5F1
:104BF000089588E090E030E8A1A1B2A14C9120A5F1
:104C0000209524232C93A78DB0A127A1432F4623C1
:104C100021F04C91422B4C9304C04C9120952423BD
:104C20002C93A1A1B2A12C9140A5242B2C933695B5
:104C3000019711F708951F93CF93DF93EC01162F7F
:104C4000898D8F3F09F1EBA1FCA1808199A5892B6A
:104C50008083EDA1FEA190818AA580958923808320
:104C6000EBA1FCA1908189A5809589238083CE0149
:104C70000E94EE25EBA1FCA1808199A5892B808360
:104C8000DF91CF911F9108958F89682F772767FD56
:104C9000709580E696E00E94281D60E080E696E030
:104CA0000E94D51C612F80E696E00E94D51C80E60C
:104CB00096E0DF91CF911F910C94A01D0F931F934D
:104CC000CF93DF93EC01162F022F688F4F8B898DC6
:104CD0008F3F09F477C061E08B8D0E94F82861E076
:104CE0008D8D0E94F8288D8D992787FD9095FC0168
:104CF000E75AF94FE491F0E0EE0FFF1FE958F94F42
:104D0000259134913CA32BA3FC01EB5BF94F8491DB
:104D100089A78B8D992787FD9095FC01E75AF94F5C
:104D2000E491F0E0EE0FFF1FE958F94F259134911F
:104D30003EA32DA3FC01EB5BF94F84918AA78E8DD6
:104D4000811134C061E0898D0E94F82861E08A8D6C
:104D50000E94F8288A8D992787FD9095FC01E75AD3
:104D6000F94FE491F0E0EE0FFF1FE958F94F25915C
:104D700034913AA329A3FC01EB5BF94F849188A7F6
:104D8000898D992787FD9095FC01E75AF94FE491A9
:104D9000F0E0EE0FFF1FE958F94F2591349138A349
:104DA0002F8FFC01EB5BF94F84918FA38E8D8823AD
:104DB00069F00E94471C8CB58C7F8CBD8DB58160DD
:104DC0008DBD04C080E696E00E94141D0023E1F032
:104DD00061E08C8D0E94F82861E08C8D0E94312961
:104DE00061E070E080E090E00E946C2860E08C8DD3
:104DF0000E9431296AE070E080E090E00E946C2817
:104E000061E08C8D0E9431296EEACE010E941B2642
:104E100065EDCE010E941B2660E8CE010E941B2694
:104E200068EACE010E941B266FE3CE010E941B267A
:104E300063EDCE010E941B2660E0CE010E941B267E
:104E400060E4CE010E941B266DE8CE010E941B2665
:104E5000113011F460E101C064E1CE010E941B2613
:104E600060E2CE010E941B2660E0CE010E941B265C
:104E700061EACE010E941B2668ECCE010E941B262F
:104E80006AEDCE010E941B2662E1CE010E941B2624
:104E900061E8CE010E941B26113011F46FE901C0B8
:104EA0006FECCE010E941B2669EDCE010E941B26ED
:104EB000113011F462E201C061EFCE010E941B26A5
:104EC0006BEDCE010E941B2660E4CE010E941B26E2
:104ED00064EACE010E941B2666EACE010E941B26D0
:104EE0006FEACE01DF91CF911F910F910C941B2699
:104EF000DF92EF92FF920F931F93CF93DF93EC011A
:104F000061E20E941B2660E0CE010E941B266FE733
:104F1000CE010E941B2662E2CE010E941B2660E0A9
:104F2000CE010E941B2667E0CE010E941B26898DC0
:104F30008F3F31F1EBA1FCA1808199A5892B808362
:104F4000EDA1FEA180819AA5892B8083EBA1FCA114
:104F5000908189A580958923808306E211E0F8017C
:104F600061918F01CE010E94EE25F5E006321F0708
:104F7000B1F7EBA1FCA1808199A5892B808337C073
:104F8000D090B8008CE08093B80006E211E06F8901
:104F9000772767FD709580E696E00E94281DE091D6
:104FA0006006F09161060190F081E02D60E480E6FA
:104FB00096E00995E12CF12CF801EE0DFF1D6081C2
:104FC00080E696E00E94D51C8FEFE81AF80AE0E12F
:104FD000EE16F10489F780E696E00E94A01D005FBE
:104FE0001F4FF5E006321F0791F6D092B800DF910F
:104FF000CF911F910F91FF90EF90DF9008951F9236
:105000000F920FB60F9211242F933F938F939F937C
:10501000AF93BF938091210790912207A09123071E
:10502000B09124073091200726E0230F2D3720F47C
:105030000296A11DB11D05C029E8230F0396A11DED
:10504000B11D209320078093210790932207A093FE
:105050002307B09324078091250790912607A091FC
:105060002707B09128070196A11DB11D8093250740
:1050700090932607A0932707B0932807BF91AF917D
:105080009F918F913F912F910F900FBE0F901F9086
:1050900018953FB7F8948091250790912607A09125
:1050A0002707B091280726B5A89B05C02F3F19F008
:1050B0000196A11DB11D3FBF6627782F892F9A2F1A
:1050C000620F711D811D911D43E0660F771F881FC0
:1050D000991F4A95D1F70895CF92DF92EF92FF92F0
:1050E000CF93DF936B017C010E944928EB01C1142F
:1050F000D104E104F10489F00E94152C0E94492892
:105100006C1B7D0B683E734090F381E0C81AD10898
:10511000E108F108C851DC4FEACFDF91CF91FF9051
:10512000EF90DF90CF900895789484B5826084BD2D
:1051300084B5816084BD85B5826085BD85B581609B
:1051400085BDEEE6F0E0808181608083E1E8F0E0FB
:105150001082808182608083808181608083E0E82A
:10516000F0E0808181608083E1EBF0E08081846009
:105170008083E0EBF0E0808181608083EAE7F0E00B
:1051800080818460808380818260808380818E7F43
:1051900080838081806880831092C100089583306D
:1051A00081F028F4813099F08230A1F008958730A1
:1051B000A9F08830B9F08430D1F4809180008F7DDF
:1051C00003C0809180008F7780938000089584B51C
:1051D0008F7702C084B58F7D84BD08958091B00023
:1051E0008F7703C08091B0008F7D8093B0000895C9
:1051F000CF93DF9390E0FC01EB5BF94F2491FC012E
:10520000E75AF94F8491882349F190E0880F991F5C
:10521000FC01EF57F94FA591B4918958994FFC01C2
:10522000C591D4919FB7611108C0F8948C912095D5
:1052300082238C93888182230AC0623051F4F894CF
:105240008C91322F309583238C938881822B888395
:1052500004C0F8948C91822B8C939FBFDF91CF91E7
:1052600008950F931F93CF93DF931F92CDB7DEB7AF
:10527000282F30E0F901EF5CF94F8491F901EB5BE5
:10528000F94F1491F901E75AF94F04910023C9F03D
:10529000882321F069830E94CF286981E02FF0E004
:1052A000EE0FFF1FE958F94FA591B4919FB7F894FD
:1052B0008C91611103C01095812301C0812B8C93C7
:1052C0009FBF0F90DF91CF911F910F910895CF93C2
:1052D000DF93282F30E0F901EF5CF94F8491F90159
:1052E000EB5BF94FD491F901E75AF94FC491CC2304
:1052F00091F081110E94CF28EC2FF0E0EE0FFF1FFC
:10530000E359F94FA591B4912C912D2381E090E0C0
:1053100021F480E002C080E090E0DF91CF91089519
:105320000E944B2FFC01818D228D90E0805C9F4F6D
:10533000821B91098F7399270895FC01918D828DAD
:10534000981731F0828DE80FF11D858D90E008955A
:105350008FEF9FEF0895FC01918D828D981761F07A
:10536000828DDF01A80FB11D5D968C91928D9F5F9C
:105370009F73928F90E008958FEF9FEF089589E2D9
:105380009BE2892B49F080E090E0892B29F00E9474
:10539000292B81110C9400000895FC01848DDF01FC
:1053A000A80FB11DA35ABF4F2C91848D90E0019698
:1053B0008F739927848FA689B7892C93A089B18987
:1053C0008C9180648C93938D848D981306C0028891
:1053D000F389E02D80818F7D80830895CF93DF93C3
:1053E000EC01888D8823C9F0EA89FB89808185FDDD
:1053F00005C0A889B9898C9186FD0FC00FB607FC3E
:10540000F5CF808185FFF2CFA889B9898C9185FF7E
:10541000EDCFCE010E94CD29E7CFDF91CF91089546
:10542000CF92DF92FF920F931F93CF93DF931F9240
:10543000CDB7DEB76C0181E0D60158968C935897B2
:105440005B969C915B975C968C915C97981307C0D8
:105450005096ED91FC915197808185FD2EC0F6010B
:10546000038D10E00F5F1F4F0F731127F02EF60111
:10547000848DF81211C00FB607FCF9CFD6015096F3
:10548000ED91FC915197808185FFF1CFC601698331
:105490000E94CD296981EBCF838DE80FF11DE35A7E
:1054A000FF4F6083D6015B960C935B975296ED910C
:1054B000FC915397808180620CC0D6015696ED9185
:1054C000FC91579760835096ED91FC9151978081A4
:1054D0008064808381E090E00F90DF91CF911F91F5
:1054E0000F91FF90DF90CF900895BF92CF92DF92FF
:1054F000EF92FF92CF93DF93EC016A017B01B22E12
:1055000060E874E88EE190E0A70196010E94262CE5
:1055100021503109410951095695479537952795ED
:10552000E889F98982E08083211580E1380798F0C5
:10553000E889F989108260E472E48FE090E0A701C5
:1055400096010E94262C2150310941095109569596
:10555000479537952795EC85FD853083EE85FF854A
:105560002083188EEC89FD89B082EA89FB898081CD
:1055700080618083EA89FB89808188608083EA89F1
:10558000FB89808180688083EA89FB8980818F7DA7
:105590008083DF91CF91FF90EF90DF90CF90BF900D
:1055A00008951F920F920FB60F9211242F938F938D
:1055B0009F93EF93FF93E0913907F0913A07808131
:1055C000E0913F07F091400782FD12C090818091E9
:1055D00042078F5F8F7320914307821751F0E0914C
:1055E0004207F0E0E75DF84F958F8093420701C0D6
:1055F0008081FF91EF919F918F912F910F900FBE1E
:105600000F901F9018951F920F920FB60F921124B2
:105610002F933F934F935F936F937F938F939F93BA
:10562000AF93BF93EF93FF9389E297E00E94CD2958
:10563000FF91EF91BF91AF919F918F917F916F916A
:105640005F914F913F912F910F900FBE0F901F9040
:10565000189589E297E00E94922921E0892B09F4AC
:1056600020E0822F089510922C0710922B0788EECD
:1056700093E0A0E0B0E080932D0790932E07A093D5
:105680002F07B09330078AE895E090932A0780931C
:10569000290785EC90E0909336078093350784ECDA
:1056A00090E0909338078093370780EC90E09093D8
:1056B0003A078093390781EC90E090933C07809300
:1056C0003B0782EC90E090933E0780933D0786EC89
:1056D00090E09093400780933F071092420710920A
:1056E00043071092440710924507089508950E94B9
:1056F00094280E94762B0E94B506CFEBD9E20E9437
:1057000083082097E1F30E94BF29F9CF0C94242E3F
:105710000C94BC2ECF92DF92EF92FF920F931F93C7
:10572000CF93DF936C017A01EB01E60EF71E00E0E8
:1057300010E0CE15DF0561F06991D601ED91FC9185
:105740000190F081E02DC6010995080F191FF1CFD6
:10575000C801DF91CF911F910F91FF90EF90DF90E3
:10576000CF9008956115710581F0DB010D90002047
:10577000E9F7AD0141505109461B570BDC01ED9192
:10578000FC910280F381E02D099480E090E008957F
:10579000EF92FF920F931F93CF93DF938C01FB0146
:1057A000C0E0D0E064917F018FEFE81AF80A662329
:1057B00061F0D801ED91FC910190F081E02DC801DC
:1057C0000995C80FD91FF701EDCFCE01DF91CF9119
:1057D0001F910F91FF90EF90089566E975E00C948A
:1057E000B22B0F931F93CF93DF93EC010E94C82B32
:1057F0008C01CE010E94ED2B800F911FDF91CF9184
:105800001F910F9108950F931F93CF93DF93EC0196
:105810000E94B22B8C01CE010E94ED2B800F911FB4
:10582000DF91CF911F910F9108950895DB018F9320
:105830009F930E944E2CBF91AF91A29F800D911D0E
:10584000A39F900DB29F900D11240895A1E21A2EEE
:10585000AA1BBB1BFD010DC0AA1FBB1FEE1FFF1F14
:10586000A217B307E407F50720F0A21BB30BE40B64
:10587000F50B661F771F881F991F1A9469F76095AB
:105880007095809590959B01AC01BD01CF01089565
:10589000EE0FFF1F0590F491E02D09940E94152E44
:1058A000A59F900DB49F900DA49F800D911D112474
:1058B0000895DF93CF931F930F939A9DF02D219F0F
:1058C000F00D8B9DF00D8A9DE02DF10D039FF00DE5
:1058D000029FE00DF11D4E9DE00DF11D5E9DF00D4E
:1058E0004F9DF00D7F936F93BF92AF925F934F9355
:1058F000D5010E94152E8B01AC01D7010E94152EF7
:10590000EB01E80FF91FD6010E94A92C2F913F91BE
:10591000D6010E94152EC60FD71FE81FF91FAF91A1
:10592000BF910E94A92C2F913F910E94152EC60F66
:10593000D71FE81FF91FD6010E94152EE60FF71F8B
:105940009801BE01CF0111240F911F91CF91DF91DA
:1059500008950E94152E460F571FC81FD91F08F41F
:1059600031960895E894DF93CF93FC01DB010E9408
:10597000152E7F936F93E9019A01AC01BF93AF930A
:105980003F932F93DF010E94152E26F46C1B7D0B95
:10599000820B930B9E01EB01FC010E94A92CAF919D
:1059A000BF912F913F910E94A92CBE01CF01F90117
:1059B0002F913F91CF91DF910895689401C0E894B1
:1059C000F92FF12B12F00C94112DA0E0B0E0EBEECA
:1059D000FCE20C94832D092E059422F40E946D2D77
:1059E000112392F4F0E80F26FFEFE094F094009575
:1059F0001095B094C094D094A194BF0ACF0ADF0A46
:105A0000EF0AFF0A0F0B1F0B0E941C2D07FC0E94C0
:105A10006D2DCDB7DEB7ECE00C949F2D689401C0DE
:105A2000E8948F929F92CF93DF930E941C2DDF9179
:105A3000CF919F908F90089588249924F401E401D8
:105A4000B0E49F93AA279A158B049C04ED05FE05EC
:105A5000CF05D007A10798F4AD2FDC2FCF2FFE2F55
:105A6000E92D982C892E982F872F762F652F542F6C
:105A7000432F322F2227B85031F7BF9127C01B2E5A
:105A8000BF91BB27220F331F441F551F661F771F6F
:105A9000881F991F881C991CEE1FFF1FCC1FDD1F3C
:105AA000AA1FBB1F8A149B04EC05FD05CE05DF056C
:105AB000A007B10748F08A189B08EC09FD09CE0938
:105AC000DF09A00BB10B21601A94E1F62EF49401CA
:105AD000AF01BE01CD01000C0895609570958095D1
