:100000000C944D030C9475030C9475030C947503B8
:100010000C9475030C943F040C9475030C947503B5
:100020000C9475030C9475030C9475030C94750370
:100030000C9475030C9475030C9475030C94750360
:100040000C94FC240C9475030C94CE270C9400287B
:100050000C9475030C9475030C9475030C94750340
:100060000C94821B0C94750325141B141D141F146F
:100070002114231441144114B514B714B914BB143A
:10008000BD14BF14C114C3142A2043616C69627289
:100090006174696F6E204F4B21002A2A2043616CE6
:1000A0006962726174696F6E202A2A002A2A2A20E6
:1000B00053657420746F20545278202A2A002A2A0B
:1000C000205475726E20524954204F6666202A00D3
:1000D0002020202020202020202020202020202020
:1000E00020005369353335312076666F20562E3126
:1000F0002E310042464F005249540054527800209D
:1001000020314D487A003130306B487A0020313050
:100110006B487A002020316B487A0020313030481B
:100120007A0020203130487A0020202031487A009F
:10013000537465703A004B487A004D487A000000CD
:100140000000003E5B4F5B3E3E6B4F6B3E1C3E7CB7
:100150003E1C183C7E3C181C577D571C1C5E7F5E65
:100160001C00183C1800FFE7C3E7FF001824180024
:10017000FFE7DBE7FF30483A060E262979292640BB
:100180007F050507407F05253F5A3CE73C5A7F3EE7
:100190001C1C08081C1C3E7F14227F22145F5F0079
:1001A0005F5F06097F017F006689956A6060606015
:1001B0006094A2FFA29408047E040810207E201000
:1001C00008082A1C08081C2A08081E101010100C09
:1001D0001E0C1E0C30383E3830060E3E0E06000057
:1001E00000000000005F00000007000700147F14FB
:1001F0007F14242A7F2A122313086462364956206A
:10020000500008070300001C2241000041221C008E
:100210002A1C7F1C2A08083E08080080703000084D
:1002200008080808000060600020100804023E5121
:1002300049453E00427F40007249494946214149B3
:100240004D331814127F1027454545393C4A49491A
:100250003141211109073649494936464949291E84
:100260000000140000004034000000081422411473
:1002700014141414004122140802015909063E41C5
:100280005D594E7C1211127C7F494949363E4141ED
:1002900041227F4141413E7F494949417F09090946
:1002A000013E414151737F0808087F00417F4100B2
:1002B0002040413F017F081422417F404040407F61
:1002C000021C027F7F0408107F3E4141413E7F09AE
:1002D0000909063E4151215E7F09192946264949EF
:1002E000493203017F01033F4040403F1F2040202F
:1002F0001F3F4038403F631408146303047804032D
:100300006159494D43007F414141020408102000DA
:100310004141417F0402010204404040404000034B
:1003200007080020545478407F2844443838444417
:100330004428384444287F385454541800087E090F
:100340000218A4A49C787F0804047800447D40002F
:100350002040403D007F1028440000417F40007C49
:10036000047804787C080404783844444438FC1841
:1003700024241818242418FC7C0804040848545425
:10038000542404043F44243C4040207C1C20402052
:100390001C3C4030403C44281028444C9090907CB9
:1003A0004464544C440008364100000077000000CB
:1003B0004136080002010204023C2623263C1EA10D
:1003C000A161123A4040207A38545455592155556C
:1003D000794121545478412155547840205455791D
:1003E000400C1E52721239555555593954545459AE
:1003F00039555454580000457C410002457D420067
:1004000001457C40F0292429F0F0282528F07C546F
:100410005545002054547C547C0A097F493249498F
:1004200049323248484832324A4848303A414121FC
:100430007A3A42402078009DA0A07D394444443956
:100440003D4040403D3C24FF2424487E4943662BE8
:100450002FFC2F2BFF0929F620C0887E090320548A
:100460005479410000447D413048484A3238404088
:10047000227A007A0A0A727D0D19317D2629292FE8
:1004800028262929292630484D4020380808080800
:1004900008080808382F10C8ACBA2F102834FA0002
:1004A000007B000008142A142222142A1408AA002F
:1004B0005500AAAA55AA55AA000000FF0010101066
:1004C000FF00141414FF001010FF00FF1010F010B4
:1004D000F0141414FC001414F700FF0000FF00FFD8
:1004E0001414F404FC141417101F10101F101F1400
:1004F00014141F00101010F0000000001F10101046
:10050000101F10101010F010000000FF101010103D
:100510001010101010FF10000000FF140000FF006A
:10052000FF00001F10170000FC04F414141710172C
:100530001414F404F40000FF00F714141414141439
:1005400014F700F7141414171410101F101F1414AC
:1005500014F4141010F010F000001F101F00000021
:100560001F14000000FC140000F010F01010FF1029
:10057000FF141414FF141010101F00000000F010DE
:10058000FFFFFFFFFFF0F0F0F0F0FFFFFF000000C3
:100590000000FFFF0F0F0F0F0F38444438447C2A30
:1005A0002A3E147E02020606027E027E026355493E
:1005B00041633844443C04407E201E2006027E02F3
:1005C0000299A5E7A5991C2A492A1C4C7201724C74
:1005D000304A4D4D303048784830BC625A463D3E36
:1005E000494949007E0101017E2A2A2A2A2A4444D7
:1005F0005F444440514A444040444A51400000FF57
:100600000103E080FF000008086B6B0836123624F7
:1006100036060F090F060000181800000010100021
:100620003040FF0101001F01011E00191D171200BB
:100630003C3C3C3C000000000000000008000201BF
:100640000000030407000000000000000001020495
:100650000810204080010204081020010204081044
:10066000200404040404040404020202020202033B
:1006700003030303030000000023002600290000F9
:10068000000000250028002B0000000000240027A7
:10069000002A0000320CA01A302811241FBECFEF10
:1006A000D8E0DEBFCDBF15E0A0E0B1E0ECE3FEE5B1
:1006B00002C005900D92A83AB107D9F727E0A8EA41
:1006C000B5E001C01D92A739B207E1F716E0CAE90B
:1006D000D6E004C02297FE010E944729C439D10701
:1006E000C9F70E9474280C941C2F0C9400002091D0
:1006F000A905213029F020F0223009F447C089C033
:1007000081309105A9F480910E0190910F01A09183
:100710001001B091110140910A0150910B016091BB
:100720000C0170910D01840F951FA61FB71F25C0E6
:10073000019609F06EC080910E0190910F01A09179
:100740001001B091110140910A0150910B0160918B
:100750000C0170910D0184179507A607B70708F4DF
:1007600058C080910E0190910F01A0911001B0919D
:100770001101841B950BA60BB70B80930E01909370
:100780000F01A0931001B093110143C08130910576
:10079000A9F48091120190911301A0911401B091DC
:1007A000150140910A0150910B0160910C0170916B
:1007B0000D01840F951FA61FB71F23C0019649F591
:1007C0008091120190911301A0911401B091150133
:1007D00040910A0150910B0160910C0170910D0143
:1007E00084179507A607B707A0F080911201909192
:1007F0001301A0911401B0911501841B950BA60B58
:10080000B70B8093120190931301A0931401B0933E
:10081000150180910E0190910F01A0911001B091EE
:1008200011018130914EA54FB54060F080E091EE0E
:10083000A5EFB5E080930E0190930F01A0931001F6
:10084000B093110180910E0190910F01A0911001C0
:10085000B091110180319742A105B10560F480E1AA
:1008600097E2A0E0B0E080930E0190930F01A09377
:100870001001B093110181E08093AF0508951F929C
:100880000F920FB60F9211242F933F934F935F93C4
:100890006F937F938F939F93AF93BF93EF93FF9348
:1008A00080EC95E00E94870C803119F481E090E0A3
:1008B00004C0803221F48FEF9FEF0E947703FF91F5
:1008C000EF91BF91AF919F918F917F916F915F91C8
:1008D0004F913F912F910F900FBE0F901F90189541
:1008E00084E00E946426892BA1F464E170E080E03A
:1008F00090E00E94692584E00E946426892BD1F54E
:1009000084E00E946426892BD9F381E08093AE05B0
:1009100031C085E00E946426892BA1F464E170E077
:1009200080E090E00E94692585E00E946426892B82
:1009300009F585E00E946426892BD9F381E0809334
:10094000AD0518C087E00E946426892B99F464E104
:1009500070E080E090E00E94692587E00E946426B4
:10096000892B41F487E00E946426892BD9F381E02A
:100970008093AC058091AD059091AE05892B909147
:10098000AC05892B08958F929F92AF92BF92CF9220
:10099000DF92EF92FF920F931F9386E00E946426EE
:1009A000892B21F48091AB05882359F086E00E94C1
:1009B0006426892B09F4CAC08091AB05811133C02C
:1009C000C5C081E08093A9058093AB0580910E019D
:1009D00090910F01A0911001B09111018093B80581
:1009E0009093B905A093BA05B093BB0580910A0115
:1009F00090910B01A0910C01B0910D018093060123
:100A000090930701A0930801B093090184E690E058
:100A1000A0E0B0E080930A0190930B01A0930C0139
:100A2000B0930D0193C01092A9051092AB0580916F
:100A3000B8059091B905A091BA05B091BB05809316
:100A40000E0190930F01A0931001B09311018091BA
:100A5000060190910701A0910801B09109018093CE
:100A60000A0190930B01A0930C01B0930D01109219
:100A7000A80540910E0150910F01609110017091F5
:100A800011018091120190911301A0911401B09174
:100A9000150184179507A607B707A8F040910E0126
:100AA00050910F016091100170911101809112011C
:100AB00090911301A0911401B0911501840F951F1D
:100AC000A61FB71F14C080910E0190910F01A09135
:100AD0001001B091110140911201509113016091E8
:100AE000140170911501841B950BA60BB70B809315
:100AF000BC059093BD05A093BE05B093BF05609162
:100B0000BC057091BD058091BE059091BF0524E69E
:100B100030E040E050E00E94AF291F92E1E0EF9307
:100B2000812CE0E29E2EFFE5AF2EA0EABA2EB2E1C4
:100B3000CB2ED12CE12CF12C89019A01AB01BC0107
:100B400083EC95E00E9409150F900F901F910F9173
:100B5000FF90EF90DF90CF90BF90AF909F908F90DD
:100B6000089548E250E068E070E081E096E00E947D
:100B7000801F61E081E096E00E94861F60E371E0E3
:100B800081E096E00E94C52880910A0190910B01B6
:100B9000A0910C01B0910D01883E23E09207A105C0
:100BA000B10571F18CF48A309105A105B10511F1FF
:100BB00084369105A105B10501F10197A105B105A3
:100BC00059F569E271E024C0803A26E8920721E0F5
:100BD000A207B105C1F0803422E492072FE0A207FA
:100BE000B105A1F080319742A105B105A9F46DE0EE
:100BF00071E00EC062E271E00BC06BE171E008C011
:100C000064E171E005C066E071E002C06FEF70E082
:100C100081E096E00E94EE2848E250E064E670E051
:100C200081E096E00E94801F8091A905813049F003
:100C300028F0823061F463EF70E005C06BEF70E084
:100C400002C067EF70E081E096E00E94EE2847E383
:100C500050E06FE070E081E096E00E94801F62EE5D
:100C600070E081E096E00E94C52849E150E06CE028
:100C700070E081E096E00E94801F8091A80582309C
:100C800091F038F4882361F08130B1F46EEB70E0BC
:100C90000FC0833059F0843079F468E870E008C000
:100CA00060ED70E005C06CEA70E002C06AE970E0D7
:100CB00081E096E00E94C52881E096E00C947524BE
:100CC000CF92DF92EF92FF920F931F93CF93DF9318
:100CD000CDB7DEB761970FB6F894DEBF0FBECDBFBC
:100CE00081E096E00E94E0228091A905813061F0C8
:100CF00058F0823089F4C0901201D0901301E09036
:100D00001401F090150108C0C0900E01D0900F01A1
:100D1000E0901001F09011011C86FF92EF92DF929B
:100D2000CF9286E295E09F938F93CE0101967C014E
:100D3000FF928F930E94512CF70101900020E9F758
:100D40008F01015011090E191F0940E150E064E6BE
:100D500070E081E096E00E94801F61E081E096E013
:100D60000E94861F0FB6F894DEBF0FBECDBF0730BE
:100D70001105CCF06AE371E081E096E00E94C5289D
:100D8000680196E0C91AD108B701CE010B960E94FE
:100D90004A2CB80167507109EBE0F0E0EC0FFD1F41
:100DA0006E0F7F1F18C066E371E081E096E00E943D
:100DB000C5286801F3E0CF1AD108B701CE010B9620
:100DC0000E944A2CB801645071098BE090E08C0FAE
:100DD0009D1F680F791FCE0CDF1CC6010E944A2C94
:100DE0008EE2F601808307301105C1F05CF4053016
:100DF000110579F006301105F1F440E050E068E1AA
:100E000070E015C00830110571F00930110559F076
:100E100012C040E050E064E270E009C040E050E001
:100E20006CE070E004C040E050E060E070E081E021
:100E300096E00E94801F62E081E096E00E94861F9B
:100E4000B70181E096E00E9400290E94B1056196F9
:100E50000FB6F894DEBF0FBECDBFDF91CF911F91CB
:100E60000F91FF90EF90DF90CF9008958F929F9217
:100E7000AF92BF92CF92DF92EF92FF920F931F93A8
:100E800026E040E052EC61E070E086EF96E00E94E0
:100E900072278DE296E00E94111A21E04CE362E095
:100EA00081E096E00E945B2380E090E00E94452E66
:100EB0008B019C010A5011092109310907331244A1
:100EC0002F40310548F460930A0170930B01809321
:100ED0000C0190930D010CC084E690E0A0E0B0E01E
:100EE00080930A0190930B01A0930C01B0930D0124
:100EF00084E090E00E94452E60930E0170930F01F4
:100F0000809310019093110180910E0190910F0137
:100F1000A0911001B091110140910E0150910F016B
:100F200060911001709111014130514E654F754033
:100F300028F480319742A105B10560F480E89FE96B
:100F4000A5EDB0E080930E0190930F01A0931001E6
:100F5000B093110188E090E00E94452E6093120149
:100F600070931301809314019093150180911201E5
:100F700090911301A0911401B091150140911201BB
:100F80005091130160911401709115014130514E3F
:100F9000654F754028F480319742A105B10560F492
:100FA00080E494E5A9E8B0E08093120190931301E6
:100FB000A0931401B09315011092B4051092B505D9
:100FC0001092B6051092B70584E190E00E94452E7C
:100FD000603671058105910561F480E190E00E9421
:100FE000452E6093B4057093B5058093B605909334
:100FF000B7058091B4059091B505A091B605B09163
:10100000B705805C9748A248BE4F8093B005909387
:10101000B105A093B205B093B30540E050E0BA012A
:1010200083EC95E00E94E00C2091B0053091B10571
:101030004091B2055091B30560E883EC95E00E94C1
:101040000613E12CF12C00E010E22FE530EA42E13A
:1010500050E060E070E083EC95E00E9465126091E2
:101060000E0170910F01809110019091110124E601
:1010700030E040E050E00E94AF291F921F92812C87
:10108000A0E29A2EBFE5AB2E10EAB12E02E1C02EEF
:10109000D12CF12C89019A01AB01BC0183EC95E0C4
:1010A0000E94091540E050E060E070E083EC95E0BC
:1010B0000E94861340910E0150910F016091100122
:1010C000709111018091120190911301A09114016E
:1010D000B09115010F900F9084179507A607B707D9
:1010E000A8F040910E0150910F0160911001709194
:1010F00011018091120190911301A0911401B091FE
:101100001501840F951FA61FB71F14C080910E01F3
:1011100090910F01A0911001B09111014091120125
:10112000509113016091140170911501841B950B6E
:10113000A60BB70B8093BC059093BD05A093BE058D
:10114000B093BF056091BC057091BD058091BE054F
:101150009091BF0524E630E040E050E00E94AF29C6
:101160001F92E1E0EF93812C10E2912E0FE5A02E6B
:10117000E0EABE2EF2E1CF2ED12CE12CF12C890138
:101180009A01AB01BC0183EC95E00E94091540E097
:1011900050E061E070E083EC95E00E94861360917E
:1011A000120170911301809114019091150124E6B0
:1011B00030E040E050E00E94AF291F92E2E0EF9360
:1011C00089019A01AB01BC0183EC95E00E940915ED
:1011D00040E050E062E070E083EC95E00E9486130E
:1011E00081E096E00E94E02281E096E00E94752472
:1011F00061E081E096E00E94861F61E070E081E09E
:1012000096E00E948C1F62E084E00E94F5258091A8
:10121000680084608093680080916D008C6080938A
:101220006D00789462E085E00E94F52562E086E03A
:101230000E94F52562E087E00E94F5250F900F904F
:101240000F900F901F910F91FF90EF90DF90CF9034
:10125000BF90AF909F908F900C9460068F929F925A
:10126000AF92BF92CF92DF92EF92FF920F931F93B4
:10127000CF938091A805843041F468EB7BE080E057
:1012800090E00E9469251092A8050E947004809148
:10129000AF05882309F4B4C00E946006C091A90577
:1012A000C11115C08091AA05811139C060910E014C
:1012B00070910F01809110019091110124E630E0AE
:1012C00040E050E00E94AF291F921F9212C0C2302E
:1012D00031F5609112017091130180911401909188
:1012E000150124E630E040E050E00E94AF291F9253
:1012F000CF93812C10E2912E0FE5A02EE0EABE2EB6
:10130000F2E1CF2ED12CE12CF12C89019A01AB0115
:10131000BC0183EC95E00E9409150F900F9040915D
:101320000E0150910F016091100170911101809197
:10133000120190911301A0911401B091150184172D
:101340009507A607B707A8F040910E0150910F012D
:10135000609110017091110180911201909113011F
:10136000A0911401B0911501840F951FA61FB71FFE
:1013700014C080910E0190910F01A0911001B091C5
:10138000110140911201509113016091140170916B
:101390001501841B950BA60BB70B8093BC0590938E
:1013A000BD05A093BE05B093BF056091BC057091CB
:1013B000BD058091BE059091BF0524E630E040E078
:1013C00050E00E94AF291F92E1E0EF93812CF0E200
:1013D0009F2EAFE5AA2EB0EABB2EC2E1CC2ED12CB7
:1013E000E12CF12C89019A01AB01BC0183EC95E061
:1013F0000E9409151092AF051092A8050F900F904A
:101400000E94C3040E947004882309F41EC28091C4
:10141000AE05882309F471C040910A0150910B0177
:1014200060910C0170910D0180E090E00E944B2EC4
:1014300040910E0150910F016091100170911101C6
:1014400084E090E00E944B2E80910A0190910B0164
:10145000A0910C01B0910D01883E23E09207A105F7
:10146000B10591F17CF48A309105A105B10511F126
:1014700084369105A105B10511F10197A105B105CA
:10148000C9F52CC0803A26E8920721E0A207B105F1
:1014900001F1803422E492072FE0A207B105F1F0B8
:1014A00080319742A105B10529F580EA96E8A1E0CF
:1014B000B0E018C084E690E0A0E0B0E013C088EE91
:1014C00093E0A0E0B0E00EC080E197E2A0E0B0E0E1
:1014D00009C080E492E4AFE0B0E004C08AE090E0AC
:1014E000A0E0B0E080930A0190930B01A0930C015F
:1014F000B0930D011092AE05A8C18091AC05882370
:10150000D9F08091A905811104C082E08093A905DA
:1015100002C01092A90540911201509113016091EF
:1015200014017091150188E090E00E944B2E1092FA
:10153000AC051092A80589C18091AD05882309F4F6
:1015400084C186E00E946426892B11F481E004C0E6
:101550008091A905823019F48093A80574C1809107
:10156000AA0581114FC080910E0190910F01A091A9
:101570001001B09111018093B8059093B905A09323
:10158000BA05B093BB0580910A0190910B01A0911F
:101590000C01B0910D018093060190930701A09377
:1015A0000801B093090180E498E7ADE7B1E08093CA
:1015B0000E0190930F01A0931001B093110183E0ED
:1015C0008093A80581E08093AA058AE090E0A0E0DE
:1015D000B0E080930A0190930B01A0930C01B093AB
:1015E0000D0160910E0170910F0180911001909199
:1015F000110124E630E040E050E00E94AF291F9244
:101600001F920BC11092AA0540910E0150910F013B
:101610006091100170911101405458476D4771401D
:101620004093B4055093B5056093B6057093B70524
:101630008091B8059091B905A091BA05B091BB050C
:1016400080930E0190930F01A0931001B0931101AC
:101650008091060190910701A0910801B0910901C4
:1016600080930A0190930B01A0930C01B0930D019C
:1016700084E08093A80580E190E00E944B2E809149
:10168000B4059091B505A091B605B091B705805C01
:101690009748A248BE4F8093B0059093B105A093A0
:1016A000B205B093B30540E650E060E070E084E13D
:1016B00090E00E944B2E2091B0053091B1054091F1
:1016C000B2055091B30560E883EC95E00E940613E3
:1016D000E12CF12C00E010E22FE530EA42E150E08D
:1016E00060E070E083EC95E00E9465126091120169
:1016F00070911301809114019091150124E630E05E
:1017000040E050E00E94AF291F92E2E0EF93812C6D
:10171000C0E29C2E1FE5A12E00EAB02EE2E1CE2E03
:10172000D12CF12C89019A01AB01BC0183EC95E02D
:101730000E94091560910E0170910F0180911001B6
:101740009091110124E630E040E050E00E94AF2982
:101750001F921F9289019A01AB01BC0183EC95E0B5
:101760000E94091540910E0150910F0160911001E6
:10177000709111018091120190911301A0911401B7
:10178000B09115010F900F900F900F90841795074F
:10179000A607B707A8F040910E0150910F01609184
:1017A0001001709111018091120190911301A0918B
:1017B0001401B0911501840F951FA61FB71F14C007
:1017C00080910E0190910F01A0911001B091110133
:1017D0004091120150911301609114017091150113
:1017E000841B950BA60BB70B8093BC059093BD058E
:1017F000A093BE05B093BF056091BC057091BD0577
:101800008091BE059091BF0524E630E040E050E0B5
:101810000E94AF291F92E1E0EF93812CE0E29E2E1F
:10182000FFE5AF2EA0EABA2EB2E1CB2ED12CE12CEF
:10183000F12C89019A01AB01BC0183EC95E00E9477
:1018400009150F900F901092AD05CF911F910F9138
:10185000FF90EF90DF90CF90BF90AF909F908F90D0
:101860000C94600668E081E096E00E94C72283EC59
:1018700095E00E94A80C43E062E080EC95E00E94B5
:101880006E0C80910E0190910F01A0911001B0910A
:101890001101409112015091130160911401709156
:1018A0001501841B950BA60BB70B8093BC05909379
:1018B000BD05A093BE05B093BF0580910E01909128
:1018C0000F01A0911001B09111018093B805909380
:1018D000B905A093BA05B093BB050895CF93DF93E4
:1018E000EC01862F69834A8360E00E94F52560E061
:1018F0008A810E94F52561E089810E942E2661E09F
:101900008A810E942E261882DF91CF9108950F932D
:101910001F93CF93DF93EC018A810E9464268C0190
:1019200089810E946426000F111F802BE881EF70CF
:1019300094E0E99FF0011124E80FF11DE65DFA4FF4
:10194000808188838073DF91CF911F910F910895DB
:10195000FC0188E080AF81AF11AA12AA13AA1186F8
:10196000128613861486158616861786108A118AA3
:10197000128A138A148A158A168A178A108E118E73
:10198000128E138E148E158E168E178E10A211A223
:1019900012A213A214A215A216A217A210A611A693
:1019A00012A613A614A615A616A617A610AA40E4FA
:1019B00058E76DE771E042AF53AF64AF75AF08957C
:1019C000FC0144AB55AB66AB77AB08952F923F92C9
:1019D0004F925F926F927F928F929F92AF92BF923F
:1019E000CF92DF92EF92FF920F931F93CF93DF93EB
:1019F000CDB7DEB7A8970FB6F894DEBF0FBECDBF48
:101A0000280139014A01688F7E87FF8AEE8ADC014E
:101A1000DA966D917D918D919C91DD9724E630E071
:101A200040E050E00E94AF29322E232E4D835E838A
:101A30006F83788789879A8786017501110FEE0871
:101A4000FE2C87019501A6016E2D7E2D8E2D9E2DDB
:101A50000FE10E94B12AA12CEAECBE2EFAE9CF2EAA
:101A6000ABE3DA2EE12CF12C00E010E00E94DC293F
:101A7000A32CB22CCD80DE80EF80F88409851A85F6
:101A80000E9456290FE10E94CC2A59016A01A60141
:101A90009501550F220B322FA90129833A834B83DD
:101AA0005C839501A6016981762F862F962FA32C42
:101AB000B22CCD80DE80EF80F88409851A850E94E3
:101AC000E82A29833D834E835F83688779871C01D9
:101AD0009201A301B401888D9E852F3FA7E53A07A7
:101AE000A7E44A07A8EF5A07ADE06A077105810528
:101AF0009105A9F0A0F02115304B4E48504F6B4195
:101B0000710581059105B9F0B0F0412C50EB552ECF
:101B10006EE8662E70EF772EEBE18E2E09C0412C19
:101B2000F8E55F2EA7E46A2EB8EF7B2E1DE0812E2C
:101B3000912C188E1E86A980BD80CE80DF80E8841F
:101B4000F98481019201A301B401888D9E850E94D0
:101B50000D2A28A339A34AA35BA32A873B874C8776
:101B60005D870A851B852C853D850F301105210574
:101B7000310558F49501A601B701C10104E00E94A6
:101B8000B12A81010E94F12A2AC02A853B854C8511
:101B90005D852B3531054105510530F129813D81A8
:101BA0004E815F8168857985C10102E00E94B12A7A
:101BB000A980BD80CE80DF80E884F98481010E9405
:101BC000F12A59016A017B01E82F192F04E00E94D4
:101BD000B12A0E2F0E94F12A01E00E94B12A2901A8
:101BE0003A014B01888F9E87A980BD80CE80DF801F
:101BF000E884F98481019201A301B401888D9E8556
:101C00000E940B2A49013A01B62FA72FF82FE92F7E
:101C100005E00E94B12A54016301EB2EFA2E0F2F2A
:101C20001E2F0E94F12A05E00E94B12A0F2F0E9468
:101C3000E82A05E00E94B12A0F2F0E94F12A4901EB
:101C40003A01B62FA72FF82FE92F05E00E94B12AFD
:101C500059016A017B018C019401A3016B2F7A2F3A
:101C60008F2F9E2F0E94E82AA980BD80CE80DF8022
:101C7000E884F98481010E940D2A49014CA35E8702
:101C8000C901DA010097A105B10539F044244A944D
:101C9000542C4FE0642E712C04C0412C512C320185
:101CA00043945C016D0187E0AA0CBB1CCC1CDD1CBD
:101CB0008A95D1F7A88EB98ECA8EDB8EC601B50182
:101CC000A30192010E9423292C8F3D8F4E8F5F8F9D
:101CD000A980BD80CE80DF80E884F98481019401F1
:101CE0004CA15E8560E070E080E090E00E945629A3
:101CF00063015201E12CF12C87014E86BF86C88A10
:101D0000D98AEA8AFB8A0C8B1D8BE12CF12C00E02E
:101D100010E00E940D2A2E873CA34DA35EA34B0129
:101D200088A79FA38A859B85AC85BD8527E0880F02
:101D3000991FAA1FBB1F2A95D1F79250A109B1097B
:101D4000CC8CDD8CEE8CFF8C8C0D9D1DAE1DBF1DD3
:101D5000EE89FF8980839183A283B383A7019601D3
:101D6000C301B2010E941329A88CB98CCA8CDB8CE8
:101D7000A61AB70AC80AD90AA482B582C682D7822F
:101D80004086518662867386A980BD80CE80DF80C2
:101D9000E884F984810128A139A14AA15BA160E00E
:101DA00070E080E090E00E94562959016A017B01B1
:101DB0008C012E853CA14DA15EA1B40188A59FA1F7
:101DC0000E94E82AA8960FB6F894DEBF0FBECDBFDA
:101DD000DF91CF911F910F91FF90EF90DF90CF9007
:101DE000BF90AF909F908F907F906F905F904F903B
:101DF0003F902F9008952F923F924F925F926F9253
:101E00007F928F929F92AF92BF92CF92DF92EF928A
:101E1000FF920F931F93CF93DF93CDB7DEB76B97EE
:101E20000FB6F894DEBF0FBECDBF0D871E872F877C
:101E3000388B498B5A8B762E672EA982BB8ACC8A27
:101E4000DD8AEE8AFF8A98014F85588969897A89E7
:101E5000872D962D21150CEA300703E240070CEF81
:101E6000500706E0600771058105910511F008F043
:101E700046C02F331BE431071CE4410751056105BF
:101E800071058105910561F058F02F3F354D4141B5
:101E90005E47634071058105910509F0E0F50BC0CF
:101EA000B0E4BD87EBE4EE87FCE4FF87188A198A6B
:101EB0001A8A712C612C940149815B896C897D8916
:101EC0008E899F89A0E00E94032B09F069C0AD8430
:101ED000BE84CF84D888E988FA88072D162D20E0A3
:101EE00030EB4EE850EF6BE170E080E090E00E9454
:101EF0000D2A29873A874B875C87188E22C01D865A
:101F0000BCEABE87E3E2EF87FCEFF88B06E0098BC3
:101F10001A8A712C612C940149815B896C897D89B5
:101F20008E899F89A0E00E94032B09F046C101E041
:101F3000088F24E030E040E050E029873A874B8763
:101F40005C87E984FA840B851C85A801970160E011
:101F500070E0CB01AD84BE84CF84D888E988FA884C
:101F6000072D162D29833A834B835C836D837E83F3
:101F70008F83988760E070E080E090E00E945629AF
:101F8000490149835B8B6C8B7D8B8E8B9F8B10E023
:101F9000C12CD12C7601C39480E090E0DC01AAC072
:101FA000188EAD84BE84CF84D888E988FA88072D3E
:101FB000162D940149815B896C897D898E899F8961
:101FC0000E940D2A29873A874B875C8709851A85E5
:101FD0002B853C85063011052105310520F466E08E
:101FE000A62EB12C0DC029853A854B855C852930FC
:101FF000374041055105D8F048E0A42E57E0B52EF2
:10200000C12CD12CE12CF12C00E010E0940149818D
:102010005B896C897D898E899F890E940D2A2D8715
:102020003E874F87588B698B7A8B782E692EAD84CB
:10203000BE84CF84D888E988FA88072D162D9401AC
:1020400049815B896C897D898E899F890E940B2AD1
:1020500019012A01B62FA72FF82FE92F05E00E94BA
:10206000B12A51016201EB2EFA2E0F2F1E2F0E9472
:10207000F12A05E00E94B12A0F2F0E94E82A05E00C
:102080000E94B12A0F2F0E94F12A19012A01B62FAE
:10209000A72FF82FE92F05E00E94B12A59016A0104
:1020A0007B018C019101A2016B2F7A2F8F2F9E2F24
:1020B0000E94E82AAD84BE84CF84D888E988FA8853
:1020C000072D162D0E940D2AF22FE32F8F2F9E2F02
:1020D000A42FB52F11E00097A105B10539F0CC244C
:1020E000CA94DC2C3FE0E32EF12C04C0C12CD12C8F
:1020F0007601C394E88DE130A9F19C01AD0187E040
:10210000220F331F441F551F8A95D1F7288F398F0F
:102110004A8F5B8FCA01B901A70196010E9423294A
:1021200029843A844B845C8497E0220C331C441C41
:10213000551C9A95D1F782E0381A41085108220EB1
:10214000331E441E551EC701B6010E941329288D57
:10215000398D4A8D5B8D261B370B480B590BDA01E5
:10216000C9010AC0C12CD12C7601C39480E090E053
:10217000DC01212C312C2101E8A9F9A9208231822E
:102180004282538284839583A683B783C086D18697
:10219000E286F386111108C0940149815B896C893C
:1021A0007D898E899F890CC02D853E854F855889F4
:1021B00069897A89872D962D03C011E0188FF1CE99
:1021C0006B960FB6F894DEBF0FBECDBFDF91CF91F7
:1021D0001F910F91FF90EF90DF90CF90BF90AF9045
:1021E0009F908F907F906F905F904F903F902F9037
:1021F0000895DF92EF92FF920F931F93CF93DF9397
:10220000FB01E080F18002811381D481C581B68118
:10221000D7809701A8016D2F7C2F8B2F9D2D2058E3
:102220003A414640510961097109810991092F37E5
:102230003A4146405105610571058105910509F056
:1022400098F49701A8016D2F7C2F8B2F9D2D07E00F
:102250000E94B12A20833183428353836483758330
:102260008683978387E0FDC09701A8016D2F7C2F9F
:102270008B2F9D2D35534C405109610971098109FE
:1022800091092F3F34434C4051056105710581058B
:10229000910509F098F49701A8016D2F7C2F8B2FE1
:1022A0009D2D06E00E94B12A20833183428353830F
:1022B000648375838683978386E0D3C09701A801E2
:1022C0006D2F7C2F8B2F9D2D3A5648415109610966
:1022D0007109810991092F3F39464841510561052E
:1022E00071058105910509F098F49701A8016D2FFA
:1022F0007C2F8B2F9D2D05E00E94B12A20833183F6
:1023000042835383648375838683978385E0A9C062
:102310009701A8016D2F7C2F8B2F9D2D345D40439D
:10232000510961097109810991092F3F334D4043DA
:102330005105610571058105910509F098F4970132
:10234000A8016D2F7C2F8B2F9D2D04E00E94B12AB8
:102350002083318342835383648375838683978389
:1023600084E07FC09701A8016D2F7C2F8B2F9D2DBE
:10237000385A4146510961097109810991092F3F74
:10238000374A41465105610571058105910509F0FE
:1023900098F49701A8016D2F7C2F8B2F9D2D03E0C2
:1023A0000E94B12A208331834283538364837583DF
:1023B0008683978383E055C09701A8016D2F7C2FFA
:1023C0008B2F9D2D3055434C5109610971098109AD
:1023D00091092F3F3F44434C51056105710581052B
:1023E000910509F098F49701A8016D2F7C2F8B2F90
:1023F0009D2D02E00E94B12A2083318342835383C2
:10240000648375838683978382E02BC09701A8013C
:102410006D2F7C2F8B2F9D2D305A464851406109DE
:102420007109810991092F3F3F4946485140610593
:1024300071058105910509F098F49701A8016D2FA8
:102440007C2F8B2F9D2D01E00E94B12A20833183A8
:1024500042835383648375838683978381E001C0BD
:1024600080E0DF91CF911F910F91FF90EF90DF906F
:102470000895EF92FF920F931F93CF93DF93C62F90
:10248000E42E890160E670E08DE296E00E94251A54
:102490006C2F8DE296E00E94D219E801F12CCE015A
:1024A000801B910B8E159F0534F469918DE296E0A7
:1024B0000E94D219F4CF8DE296E0DF91CF911F9167
:1024C0000F91FF90EF900C949D1A6F927F928F92D4
:1024D0009F92AF92BF92CF92DF92EF92FF920F93B3
:1024E0001F93CF93DF93CDB7DEB72C970FB6F89439
:1024F000DEBF0FBECDBF4C013701FC01A4A8B5A8BB
:10250000C6A8D7A8CE0101967C01C4010E94E60CA2
:1025100084E190E00E9483288C018A85F801808301
:10252000898581838B81837082838A81838389817A
:10253000848349855A856B857C85ACE07695679563
:1025400057954795AA95D1F7407F8F818F70840F5B
:1025500085838E8186838D8187836114710421F444
:10256000980148E06AE106C06A94672831F498014E
:1025700048E062E2C4010E9439120115110519F008
:10258000C8010E9485282C960FB6F894DEBF0FBEB6
:10259000CDBFDF91CF911F910F91FF90EF90DF9012
:1025A000CF90BF90AF909F908F907F906F90089545
:1025B0001F93CF93DF931F92CDB7DEB7162F60E640
:1025C00070E08DE296E049830E94251A612F8DE22A
:1025D00096E00E94D2194981642F8DE296E00E9414
:1025E000D2198DE296E00F90DF91CF911F910C945C
:1025F0009D1A6115710511F440E204C06130710546
:1026000021F440E861EB0C94D8120895CF92DF9248
:10261000EF92FF920F931F93CF93DF931F92CDB74B
:10262000DEB78C0169017A018DE296E069830E9430
:10263000111A6981462F67EBC8010E94D812C11494
:10264000D104E104F10429F0F801C2AED3AEE4AE46
:10265000F5AE40E860E1C8010E94D81240E861E1AF
:10266000C8010E94D81240E862E1C8010E94D81255
:102670004CE060E1C8010E94D8124CE061E1C80161
:102680000E94D8124CE062E1C8010E94D81260E0BA
:1026900070E0C8010E94F91240E861EBC8010F9098
:1026A000DF91CF911F910F91FF90EF90DF90CF902E
:1026B0000C94D812CF93DF93D62F60E670E08DE2B2
:1026C00096E00E94251A6D2F8DE296E00E94D219A5
:1026D0008DE296E00E949D1A20E030E041E050E05B
:1026E00060E670E08DE296E00E949B1A8DE296E033
:1026F0000E947A19892B31F08DE296E00E948219AE
:10270000C82FF4CF8C2FDF91CF910895EF92FF92D5
:102710000F931F93CF93DF931F92CDB7DEB78C013A
:10272000262F7A01205F622F29830E945A13482F97
:102730004C7F298182E0E816F10449F0E3E0EE16CF
:10274000F10439F0EA94EF2829F4416003C04260B3
:1027500001C04360622FC8010F90DF91CF911F919C
:102760000F91FF90EF900C94D812EF92FF920F937D
:102770001F93CF93DF931F92CDB7DEB77C01262F37
:102780008A01205F622F29830E945A132981011533
:10279000110511F48F7D04C00130110509F4806228
:1027A000482F622FC7010F90DF91CF911F910F919A
:1027B000FF90EF900C94D812EF92FF920F931F931B
:1027C000CF93DF93EC018B01F42EB0E1EB2EE60EFC
:1027D0006E2D0E945A1391E0482FF91202C04064F6
:1027E00001C04F7B6E2DCE010E94D8120130110521
:1027F00039F00230110531F0012B29F4F9AA03C098
:10280000FAAA01C0FBAADF91CF911F910F91FF900F
:10281000EF900895EF92FF921F93CF93DF9300D034
:10282000CDB7DEB77C016830710580F4FB01EC5C4C
:10283000FF4F0C94452914E309C01CE307C014E4BE
:1028400005C01CE403C014E501C01CE2612FC701F0
:102850002A8349830E945A1383782A81498121114E
:102860008C6090E1499FA0011124482B612FC70182
:102870000F900F90DF91CF911F91FF90EF900C94EC
:10288000D8120F900F90DF91CF911F91FF90EF9092
:1028900008952F923F924F925F926F927F928F9204
:1028A0009F92AF92BF92CF92DF92EF92FF920F93DF
:1028B0001F93CF93DF93CDB7DEB72F970FB6F89462
:1028C000DEBF0FBECDBF3C012B01A982BA82CB82F5
:1028D000DC82ED82FE820F83188729873A874B8737
:1028E0005C87BCA0ADA029803A814C2D9E2C3F2C4A
:1028F000C984DA84EB84FC8484E190E00D873E8710
:102900004F870E9483288C01FC01D082C182642DF4
:10291000660F660F660F645DC3010E945A138C7FB9
:102920004F854370842BF80182833E853383248254
:10293000D701C6012CE0B695A795979587952A955E
:10294000D1F7982F907F2D85822F8F70890F8583E7
:1029500036829782F8E04F165104C8F4F201E45C25
:10296000FF4F980148E00C9445296AE20DC062E3EC
:102970000BC06AE309C062E407C06AE405C062E50F
:1029800003C06AE501C06BE5C3010E943912482DFE
:10299000B201C3010E94DC132A2D4B2DB201C301E9
:1029A0000E940A1401151105D9F0C8012F960FB61F
:1029B000F894DEBF0FBECDBFDF91CF911F910F9175
:1029C000FF90EF90DF90CF90BF90AF909F908F904F
:1029D0007F906F905F904F903F902F900C94852840
:1029E0002F960FB6F894DEBF0FBECDBFDF91CF910B
:1029F0001F910F91FF90EF90DF90CF90BF90AF901D
:102A00009F908F907F906F905F904F903F902F900E
:102A100008952F923F924F925F926F927F928F9282
:102A20009F92AF92BF92CF92DF92EF92FF920F935D
:102A30001F93CF93DF93CDB7DEB7AD970FB6F89462
:102A4000DEBF0FBECDBF3C01098F1A8F2B8F3C8F8D
:102A50004D8F5E8F6F8F78A389A29AA2ABA2BCA282
:102A6000CDA24D2C17019401A5016C2D7D2DC70120
:102A7000A0E00E94032B91F038554744584F6D4019
:102A8000710981099109211538454744584F6D4016
:102A900071058105910511F008F0DAC3298D3A8D91
:102AA0004B8D5C8D6D8D7E8D8F8D98A12F373A412A
:102AB00046405105610571058105910509F058F4FD
:102AC00080E8898F8AE18A8F86E08B8F1C8E1D8E2D
:102AD0001E8E1F8E18A2298D3A8D4B8D5C8D6D8DAB
:102AE0007E8D8F8D98A121153C4A43425C4F6640F4
:102AF00071058105910569F060F0198E8CEA8A8F65
:102B000083E28B8F8CEF8C8F86E08D8F1E8E1F8ED5
:102B100018A2BE01675E7F4FC3010E94F9108BA708
:102B200029A13AA14BA15CA16DA1742DC101A0E026
:102B3000098D0E94032B09F474C01A8DEB8DEEA34E
:102B40005C8CBD8DAE8DFF8DE8A1E9A798014EA1EB
:102B5000552D6B2F7A2F8F2F9E2F2F3F354D4141B3
:102B60005E47634071058105910511F008F059C079
:102B7000CE010D969F938F9389A09AA0ABA0BCA085
:102B8000CDA0D42C71012EA1352D4B2F5A2F6F2F94
:102B900079A5C3010E94FB0E0F900F9024968EAD75
:102BA0009FAD249781309105C1F08230910539F1B4
:102BB000892B09F021C3898DF301818F8A8D828F42
:102BC0008B8D838F8C8D848F8D8D858F8E8D868F51
:102BD0008F8D878F88A180A30FC3898DF30181A377
:102BE0008A8D82A38B8D83A38C8D84A38D8D85A3E9
:102BF0008E8D86A38F8D87A388A180A7FDC2898D26
:102C0000F30181A78A8D82A78B8D83A78C8D84A7E2
:102C10008D8D85A78E8D86A78F8D87A788A180AB88
:102C2000EBC21A8DFB8DFEA35C8CBD8DAE8DFF8D2E
:102C3000E8A1EFA398014EA1552D6B2F7A2F8F2F6E
:102C40009E2F2F3F354D41415E4763407105810501
:102C5000910511F108F1CE010D969F938F93812C70
:102C6000912CA12CB12CC12CD12CE12CF12C2EA11A
:102C7000352D4B2F5A2F6F2F7FA1C3010E94FB0EC2
:102C800029A33AA34BA35CA36DA3472E1C010F906D
:102C90000F90F1E0FEA301C01EA224968EAD9FAD61
:102CA00024978130910509F451C08230910509F4CF
:102CB00076C1892B09F0CCC2098D1A8D2B8D3C8DE4
:102CC0004D8D5E8D6F8D78A1CE010D969F938F9364
:102CD000812C912CA12CB12CC12CD12CE12CF12CCC
:102CE000C3010E94FB0E29A33AA34BA35CA36DA3CF
:102CF000472E1C0140E050E060E070E0C3010E94FC
:102D0000B51319A1F30111878AA182879BA193872B
:102D10001CA114878DA1858746862786308A898DD8
:102D2000818F8A8D828F8B8D838F8C8D848F8D8DFB
:102D3000858F8E8D868F8F8D878F88A180A30F9032
:102D40000F905524539418A61FA258C2F30181ADC9
:102D5000F98DFFA35A8CBB8DAC8DED8DECA7FE8D4C
:102D6000FDA7823009F06DC0EF8DE9A7F8A1FAA7A1
:102D70002FA1352D4B2F5A2F6CA57DA5CF01305497
:102D80004D40534061097109810991092F37304243
:102D900040485B496240710581059105F1F0E8F01A
:102DA000F301A1A4B2A4C3A4D4A4E5A4F6A407A5E6
:102DB00010A92FA1352D4B2F5A2F6CA57DA589A5C4
:102DC0009AA50E94FA2A49F011A212A213A214A2F3
:102DD00015A216A217A210A63BC2F301F189F9A30E
:102DE000F301F289FAA3F301F389FBA3F301F48958
:102DF000FCA3F301F589FDA3F30146882788308CF5
:102E0000CE010D969F938F9389A09AA0ABA0BCA0F2
:102E1000CDA0D42C71010FA1152D2B2F3A2F4CA52D
:102E20005DA569A57AA5C3010E94FB0E41E050E0B3
:102E300061E070E0C3010E94B5130F900F90512C18
:102E400037C019A1F301118B8AA1828B9BA1938BAF
:102E50001CA1148B8DA1858B468A278A308E6F8D9D
:102E600078A1CE010D969F938F93812C912CA12C4C
:102E7000B12CC12CD12CE12CF12C0FA1152D2B2F15
:102E80003A2F4CA55DA5C3010E94FB0E29A33AA3CE
:102E90004BA35CA36DA3472E1C0141E050E061E011
:102EA00070E0C3010E94B5130F900F905524539406
:102EB000298D3A8D4B8D5C8D6D8D7E8D8F8D98A17A
:102EC00030544D40534061097109810991092F37F0
:102ED000304240485B49624071058105910509F027
:102EE00008F448C081E0F30181AF21A532A543A5D4
:102EF00054A565A576A587A590A9A0E00E94032BFF
:102F0000E1F1B301675D7F4FC3010E94F9108BA708
:102F1000F30181889288A388B488C588D688E78819
:102F2000F08C01A512A523A534A545A556A567A536
:102F300070A9CE0101969F938F93C3010E94FB0E4F
:102F40001F92FBA5FF93812CA980BA80CB80DC80E7
:102F5000ED80FE800F81188529853A854B855C853B
:102F600062E070E0C3010E9449140F900F900F902F
:102F70000F9003C088E0F30181AF898DF30181A335
:102F80008A8D82A38B8D83A38C8D84A38D8D85A345
:102F90008E8D86A38F8D87A388A180A728C1F3017A
:102FA00081ADF98DFFA35A8CBB8DAC8DED8DECA757
:102FB000FE8DFDA7813009F06DC0EF8DE9A7F8A166
:102FC000FAA72FA1352D4B2F5A2F6CA57DA5CF0128
:102FD00030544D40534061097109810991092F37DF
:102FE000304240485B496240710581059105F1F02E
:102FF000E8F0F301A1A4B2A4C3A4D4A4E5A4F6A468
:1030000007A510A92FA1352D4B2F5A2F6CA57DA5F3
:1030100089A59AA50E94FA2A49F011A612A613A61C
:1030200014A615A616A617A610AA12C1F301F189B7
:10303000F9A3F301F289FAA3F301F389FBA3F301E6
:10304000F489FCA3F301F589FDA3F30146882788E1
:10305000308CCE010D969F938F9389A09AA0ABA040
:10306000BCA0CDA0D42C71010FA1152D2B2F3A2F70
:103070004CA55DA569A57AA5C3010E94FB0E41E0A0
:1030800050E062E070E0C3010E94B5130F900F9012
:10309000512C37C019A1F301118B8AA1828B9BA1FE
:1030A000938B1CA1148B8DA1858B468A278A308E29
:1030B0006F8D78A1CE010D969F938F93812C912CCB
:1030C000A12CB12CC12CD12CE12CF12C0FA1152D50
:1030D0002B2F3A2F4CA55DA5C3010E94FB0E29A3FF
:1030E0003AA34BA35CA36DA3472E1C0141E050E023
:1030F00062E070E0C3010E94B5130F900F90552459
:103100005394298D3A8D4B8D5C8D6D8D7E8D8F8D79
:1031100098A130544D4053406109710981099109CA
:103120002F37304240485B49624071058105910567
:1031300009F008F448C082E0F30181AF21A132A177
:1031400043A154A165A176A187A190A5A0E00E940A
:10315000032BE1F1B3016F5D7F4FC3010E94F910B2
:103160008BA7F30181889288A388B488C588D68804
:10317000E788F08C01A112A123A134A145A156A199
:1031800067A170A5CE0101969F938F93C3010E9402
:10319000FB0E1F92FBA5FF93812CA980BA80CB80E8
:1031A000DC80ED80FE800F81188529853A854B856E
:1031B0005C8561E070E0C3010E9449140F900F909C
:1031C0000F900F9003C088E0F30181AF898DF30168
:1031D00081A78A8D82A78B8D83A78C8D84A78D8DE7
:1031E00085A78E8D86A78F8D87A788A180AB81E06C
:1031F00090E098A78FA302C01EA2512C9EA19F937E
:10320000EBA5EF938EA0AD84BE84CF84D888E988E7
:10321000FA880B891C892D893E894F89588D2496FF
:103220006EAD7FAD2497C3010E9449140F900F909B
:10323000F1E05F120FC0EFA0F8A409A11AA12BA121
:103240003CA14DA1542DB101C3010E94651202C0E1
:1032500081E001C080E0AD960FB6F894DEBF0FBEEE
:10326000CDBFDF91CF911F910F91FF90EF90DF9035
:10327000CF90BF90AF909F908F907F906F905F9016
:103280004F903F902F900895CF93CFB7F8948091AF
:103290002C06811127C0EBE6F6E08491E7E5F6E025
:1032A0009491E82FF0E0EE0FFF1FE757F94FA5913B
:1032B000B4918C91892321F461E08AE00E942E264A
:1032C00061E08AE00E94F5258CB580618CBD8CB5EB
:1032D00080648CBD61E08DE00E94F52561E08BE0AB
:1032E0000E94F52580912C068F5F80932C06CFBF1E
:1032F000CF91089580915D0690E020915E06821B3B
:103300009109089520915E0680915D06281750F47A
:10331000E22FF0E0E15AF94F808190E02F5F209397
:103320005E0608958FEF9FEF0895E0915E0680910D
:103330005D06E81730F4F0E0E15AF94F808190E043
:1033400008958FEF9FEF08950895CF92DF92EF9247
:10335000FF920F931F93CF93DF937C01CB018A01E0
:1033600020913906222389F0EB016B01C40ED51E92
:10337000CC15DD0569F06991D701ED91FC910190C3
:10338000F081E02DC7010995F3CF642F0E94591BEE
:10339000C801DF91CF911F910F91FF90EF90DF90C7
:1033A000CF900895CF93DF931F92CDB7DEB7698397
:1033B000209139062223D1F020913A06203240F0A4
:1033C00021E030E0FC013383228380E090E015C0EF
:1033D00080913B06E82FF0E0E45CF94F99819083FF
:1033E0008F5F80933B0680933A0605C061E0CE0173
:1033F00001960E94591B81E090E00F90DF91CF91E0
:103400000895FC011382128248EE53E060E070E000
:1034100044835583668377838AE495E09183808330
:10342000089510925E0610925D0610923B0610926F
:103430003A060C94A41A81E08093390660935C06E6
:1034400010923B0610923A0608950C941B1A0F93A3
:10345000062F21E040913A066CE376E080915C060D
:103460000E94061B10923B0610923A0610923906F3
:103470000F9108958F929F92AF92BF92CF92DF9259
:10348000EF92FF920F931F93CF93DF93EC01F62EF1
:10349000D42E48015901EE2019F10E941B1A1E2D4D
:1034A000143008F013E01150B8F0E881F98128E0F9
:1034B000129FB0011124A501940104C056954795AF
:1034C000379527956A95D2F7CA01B9010190F08125
:1034D000E02DCE010995E7CF60E0CE010E94271ACA
:1034E0004D2D413208F040E22C2D6FE576E08F2D16
:1034F0000E94C21A10925E0680935D06DF91CF9102
:103500001F910F91FF90EF90DF90CF90BF90AF9001
:103510009F908F900895CF92EF920F931F93C22E9A
:10352000E12C00E010E098010E943A1A1F910F91DF
:10353000EF90CF9008950C948B1A61E00C94271AA9
:103540008DE296E00C94011A1092EC0681E08093D3
:10355000EA061092E90661E082E10E942E2661E00F
:1035600083E10E942E26E9EBF0E080818E7F80834C
:1035700080818D7F808380E28093B80085E4809392
:10358000BC000895413208F03FC09091EC069111C3
:10359000FCCF91E09093EC062093EA062FEF209366
:1035A0007F061092C406240F2093C3069093EB0667
:1035B0009091EB06880F892B8093EB068091E906AA
:1035C000813041F41092E9068091EB068093BB00B4
:1035D00085EC01C085EE8093BC008091EC068130C3
:1035E000E1F38091C406841710F44091C40625ECE1
:1035F00036E0FB01D9018A2F821B841718F48D91C4
:103600008193F9CF842F089580E008950F9341327C
:1036100008F046C09091EC069111FCCF92E0909397
:10362000EC060093EA069FEF90937F061092C40683
:103630004093C306FB0165EC76E0DB019A2F961BF5
:10364000941718F491919D93F9CF1092EB069091F5
:10365000EB06880F892B8093EB068091E906813079
:1036600041F41092E9068091EB068093BB0085EC53
:1036700001C085EE8093BC00222321F08091EC06EE
:103680008230E1F380917F068F3F61F080917F0669
:10369000803251F080917F06803341F483E007C08F
:1036A00081E005C080E003C082E001C084E00F91AA
:1036B0000895613298F42091EC06243089F46093E7
:1036C000A106FC0183EA96E0DC012A2F281B2617BD
:1036D00018F421912D93F9CF80E0089581E00895A9
:1036E00082E0089585ED8093BC008091BC0084FD4C
:1036F000FCCF1092EC06089585EC8093BC001092EC
:10370000EC0608951F920F920FB60F9211242F937B
:103710003F934F935F936F937F938F939F93AF9359
:10372000BF93EF93FF938091B900887F803609F4AF
:103730009CC068F5883209F45BC090F4803109F4CC
:1037400054C038F4882309F4F5C0883009F44DC01A
:10375000F5C0883109F44CC0803209F45DC0EEC078
:10376000803409F468C048F4803309F455C08833C4
:1037700009F0E4C080937F06A8C0803509F44FC0EB
:10378000883509F45DC0883409F0D8C0D5C08839BF
:1037900009F4C6C0A8F4883709F467C038F488363D
:1037A00009F463C0803709F460C0C8C0883809F4E0
:1037B000B7C0803909F45FC0803809F0BFC05BC072
:1037C000803B09F485C038F4803A09F466C0883A31
:1037D00009F47EC0B3C0803C09F4A6C0883C09F45B
:1037E000A3C0883B09F489C0A9C08091EB0610C032
:1037F0009091C4068091C306981770F5E091C406B5
:1038000081E08E0F8093C406F0E0EB53F94F808186
:103810008093BB0085EC85C080937F068DC0E091CE
:10382000C40681E08E0F8093C4068091BB00F0E057
:10383000EB53F94F80839091C4068091C3066DC00D
:10384000E091C40681E08E0F8093C4068091BB0096
:10385000F0E0EB53F94F80838091EA0681116CC050
:1038600081E08093E90684EA60C083E08093EC06FF
:1038700010928006CFCF80918006803208F050C031
:10388000E091800681E08E0F809380068091BB00DE
:10389000F0E0EF57F94F8083BDCF809180068032F2
:1038A00030F4E0918006F0E0EF57F94F10820E946B
:1038B000721B6091800670E0E091E506F091E606EB
:1038C00081E896E00995109280060E947C1B36C024
:1038D00084E08093EC061092A2061092A106E0917B
:1038E000E706F091E80609958091A106811105C0CF
:1038F00081E08093A1061092A306E091A20681E0E8
:103900008E0F8093A206F0E0ED55F94F80818093F1
:10391000BB009091A2068091A106981708F47ACF77
:1039200085E88093BC000AC085EC8093BC001092AF
:10393000EC0604C010927F060E94721BFF91EF916B
:10394000BF91AF919F918F917F916F915F914F91B7
:103950003F912F910F900FBE0F901F9018952F92AF
:103960003F924F925F926F927F928F929F92AF920F
:10397000BF92CF92DF92EF92FF920F931F93CF935C
:10398000DF9300D000D0CDB7DEB74C017C836B83D2
:103990006A015901C8018701AC014C195D0957FF43
:1039A00003C051954195510995016B817C81261B7E
:1039B000370B37FF03C03195219531092224239419
:1039C000312C2417350714F0212C312C211431040B
:1039D00059F03A2D2B2D5C01832F922F3B812C81A6
:1039E000DC82CB82C32ED22EAB81BC81AA16BB0651
:1039F0005CF43C2D2D2D6C01832F922F3B812C816B
:103A0000BC82AB82A32EB22E2501EB81FC814E1A23
:103A10005F0A3C016C187D0877FE03C071946194C5
:103A20007108720157FE03C0FFEFEF1AFF0AF59409
:103A3000E794C816D9062CF421E030E03A832983B4
:103A400024C06FEF7FEF7A8369831FC0D401ED91AB
:103A5000FC910480F581E02D980121143104D9F006
:103A60004B815C81B601C4010995E618F708F7FEA1
:103A700006C0E981FA81CE0EDF1EE40CF51C2B8115
:103A80003C812F5F3F4F3C832B836B817C81A6164B
:103A9000B706E4F604C0A6016B817C81E4CF0F90E9
:103AA0000F900F900F90DF91CF911F910F91FF908A
:103AB000EF90DF90CF90BF90AF909F908F907F90CE
:103AC0006F905F904F903F902F9008956F927F92EC
:103AD0008F929F92AF92BF92CF92DF92EF92FF921E
:103AE0000F931F93CF93DF93EC015B016A013901C0
:103AF0004801E881F9810284F385E02D8701099569
:103B0000E881F981A601480D591D415051090284EF
:103B1000F385E02D9301B501CE010995E881F98186
:103B20000084F185E02D9401A601B501CE0109952F
:103B3000E881F981B501660D771D61507109008436
:103B4000F185E02D9401A601CE010995DF91CF9179
:103B50001F910F91FF90EF90DF90CF90BF90AF90AB
:103B60009F908F907F906F900895EF92FF920F93A8
:103B70001F93DC01ED91FC91240F351F2150310979
:103B80000680F781E02D780189019B0109951F913D
:103B90000F91FF90EF900895EF92FF920F931F9374
:103BA000DC01ED91FC91260F371F21503109068071
:103BB000F781E02D78018A0109951F910F91FF90FF
:103BC000EF9008956F927F928F929F92AF92BF92E3
:103BD000CF92DF92EF92FF920F931F93CF93DF93D9
:103BE0005C014A0169013801EB01C60ED71ECC15F4
:103BF000DD0574F4D501ED91FC910084F185E02D93
:103C000087019301A401BE01C50109952196EFCF5B
:103C1000DF91CF911F910F91FF90EF90DF90CF90A8
:103C2000BF90AF909F908F907F906F900895EF928C
:103C3000FF920F931F93DC01ED91FC9111971A965F
:103C40000D911C911B9718962D913C911997068404
:103C5000F785E02D7B0140E050E060E070E00995E1
:103C60001F910F91FF90EF9008950895FC0113822A
:103C700012828AE595E091838083758364835783FC
:103C800046837187608753874287158A1586148615
:103C90001786168621E0248B8FEF9FEF938B828B04
:103CA000918B808B268B08952F923F924F925F923B
:103CB0006F927F928F929F92AF92BF92CF92DF923C
:103CC000EF92FF920F931F93CF93DF93CDB7DEB7A1
:103CD0002C970FB6F894DEBF0FBECDBF9C878B87A5
:103CE0003A0118870F83FA86E986CD82DC0118969F
:103CF0008D919C911997681779070CF094C01A96CA
:103D00008D919C911B97481759070CF08CC08C2CF7
:103D1000912CCB01B6E0CB9E800D911D112418167D
:103D200019060CF080C0C40113E0880F991F1A9582
:103D3000E1F7840F951F181619060CF074C0F5E012
:103D40002F9F200111245B016B011C829201225CD8
:103D50003E4F2901461A570A3C81353031F0F201B5
:103D6000EA0DFB1D44914B8301C01B827A8269825C
:103D700013011E828B8180FF13C0AB85BC85ED9142
:103D8000FC91BD81B13031F40480F581E02D2F81AB
:103D9000388519C00684F785E02DEF80F8841EC0B1
:103DA000E985FA852F813885E217F307F9F0AB85AD
:103DB000BC85ED91FC91BD81B13059F40480F58151
:103DC000E02D29853A85A101B5018B859C85099552
:103DD0000DC00684F785E02DE984FA8484019401FE
:103DE00049815A81B6018B859C850995EB81E695C1
:103DF000EB83FE81FF5FFE8329813A81280D391D07
:103E00003A8329833FEF231A330AF83009F0B2CFFF
:103E10004C814F5F4C83C80CD91C8FEFA81AB80A8D
:103E2000463009F099CF2C960FB6F894DEBF0FBE3E
:103E3000CDBFDF91CF911F910F91FF90EF90DF9059
:103E4000CF90BF90AF909F908F907F906F905F903A
:103E50004F903F902F900895CF92EF92FF920F9343
:103E60001F93CF93DF93EC01262F6A3049F42C89FE
:103E70008E859F8538E0239F800D911D112432C0CF
:103E80006D30A1F1EA88FB88088919894E855F8524
:103E90006C857D85CC880E94541E2C89422F50E071
:103EA0008C859D8536E0239F800D911D11249D8773
:103EB0008C872E892223D1F06AEF64039001659FDD
:103EC000300D112468857985260F371F281739078B
:103ED0006CF403E0440F551F0A95E1F78E859F852A
:103EE000840F951F9F878E871D861C8681E090E03A
:103EF000DF91CF911F910F91FF90EF90CF90089598
:103F0000FC0175876487578746870895611101C052
:103F100061E0FC01648B0895FC01738B628B718BF3
:103F2000608B0895FC0185890895FC018085918549
:103F30000895FC018285938508950F931F93CF9375
:103F4000DF93EC018D89823061F08330D9F08130CC
:103F500009F0C8C0EC81FD81E41BF50B3197DB0152
:103F600018C08C819D81DC01A61BB70BBD018E8121
:103F70009F81FC01E41BF50BAF0141505109621B0D
:103F8000730BB0C0AE81BF81A61BB70BA21BB30BD6
:103F9000FA01F7FD05C18C819D81E817F9070CF046
:103FA000FFC0B7FF04C02A0F3B1FA0E0B0E08E8126
:103FB0009F81AD01420F531F841795071CF49C018C
:103FC0002A1B3B0B121613060CF0EAC0422F8A2F55
:103FD00086958695869590E8899FE00DF11D1124C0
:103FE000EA5DFE4FA77069F158E05A1B852F90E0FB
:103FF000EC01C25EDE4F6881251760F4DC01A21B74
:10400000B1098FEF90E00A2E02C0959587950A942A
:10401000E2F768230130110539F048F0023011054C
:1040200051F48081862706C08081862B03C060956D
:10403000808186238083451708F4B2C0451BE05871
:10404000FF4F4830A0F102301105A9F4DF01842FA1
:104050009C9190959C93A058BF4F88508830C0F792
:1040600088EF840F869586958695B0E88B9FE00D46
:10407000F11D112419C081E00130110509F080E023
:10408000982F9195EF01842F9883C058DF4F885067
:104090008830D0F788EF840F86958695869590E8CE
:1040A000899FE00DF11D1124E058FF4F4770442314
:1040B00009F476C0A42FB0E0AA5EBE4F9C910130F7
:1040C000110541F050F00230110509F069C08081FE
:1040D000892706C08081892B03C090958081892320
:1040E00080835EC057FD5CC08E819F814817590751
:1040F0000CF056C077FF04C0260F371F60E070E059
:104100008C819D81FB01E20FF31F8E179F071CF42A
:104110009C01261B370B121613060CF041C0CA0176
:1041200057FD0796E3E095958795EA95E1F7969513
:10413000982F8827979587958A5D9E4F860F971FA2
:104140004770552761E070E001C0660F4A95EAF7B5
:10415000462F0130110541F088F00230110501F5BC
:10416000FC01280F391F15C0FC01280F391FE21769
:10417000F307B1F08081842B8193F9CF6095FC0126
:10418000280F391FE217F30759F0808186238193A6
:10419000F9CFE217F30721F0808184278193F9CFCB
:1041A000DF91CF911F910F9108950F931F93CF939C
:1041B000DF93FC018589823069F08330E1F0813042
:1041C00009F082C0C481D581C41BD50BC21BD30B9F
:1041D000DB0117C084819581DC01A61BB70BBD01F3
:1041E0006150710986819781DC01A41BB50BAD017B
:1041F000421B530B69C0A681B781A61BB70B119751
:10420000EA01B7FD08C186819781A817B9070CF0AC
:1042100002C1D7FF04C02C0F3D1FC0E0D0E0848155
:104220009581AE01420F531F841795071CF49C0122
:104230002C1B3D0B121613060CF0EDC0CD01B7FD83
:10424000079643E0959587954A95E1F79695982FBF
:104250008827979587958A5D9E4F8C0F9D1FA77025
:10426000BB2741E050E00A2E01C0440F0A94EAF750
:10427000642F0130110549F098F00230110509F062
:10428000CAC0FC01280F391F17C0FC01280F391FB5
:10429000E217F30709F4BFC08081862B8193F8CF22
:1042A0004095FC01280F391FE217F30709F4B3C04A
:1042B000808184238193F8CFE217F30709F4ABC020
:1042C000808186278193F8CF77FDA5C08481958171
:1042D000681779070CF09FC057FF04C0240F351FE3
:1042E00040E050E086819781FA01E20FF31F8E17BC
:1042F0009F071CF49C01241B350B121613060CF0AF
:104300008AC0522F842F869586958695FB01B0E84A
:104310008B9FE00DF11D1124EA5DFE4F477069F19E
:1043200068E0641B862F90E0EC01C25EDE4F48819E
:10433000261760F4DC01A21BB1098FEF90E00A2E72
:1043400002C0959587950A94E2F74823013011053C
:1043500039F048F00230110551F48081842706C0FD
:104360008081842B03C040958081842380835617ED
:1043700008F451C0561BE058FF4F5830A0F10230EE
:104380001105A9F4DF01852F9C9190959C93A0586D
:10439000BF4F88508830C0F788EF850F8695869587
:1043A0008695B0E88B9FE00DF11D112419C081E0C6
:1043B0000130110509F080E0982F9195EF01852FCC
:1043C0009883C058DF4F88508830D0F788EF850F2A
:1043D00086958695869590E8899FE00DF11D1124BC
:1043E000E058FF4F57705523B1F0A52FB0E0AA5EFB
:1043F000BE4F9C910130110539F048F00230110593
:1044000051F48081892706C08081892B03C0909553
:10441000808189238083DF91CF911F910F9108952F
:10442000CF92DF92EF92FF920F931F93CF93DF9380
:104430007C018B01EA01690177FDA0C00E94951FF4
:10444000081719070CF09AC0D7FD98C0C7010E9441
:10445000991FC817D9070CF091C0C7010E94921F7D
:10446000823009F07FC0F701848195819C01201B77
:10447000310B89010150110986819781FC01EC1BE8
:10448000FD0BEF0121970BC0813049F4F7018481C6
:1044900095818C1B9D0BE8018C0101501109F1E005
:1044A000CF16D10431F010F132E0C316D104E1F19E
:1044B00065C0FE01D7FD379683E0F595E7958A95AF
:1044C000E1F7F695FE2FEE27F795E795E00FF11F40
:1044D000EA5DFE4FC770DD2781E090E00C2E01C041
:1044E000880F0A94EAF79081982B3AC0FE01D7FD15
:1044F0003796A3E0F595E795AA95E1F7F695FE2F97
:10450000EE27F795E795E00FF11FEA5DFE4FC770C4
:10451000DD2781E090E00C2E01C0880F0A94EAF7B5
:104520008095908198231CC0FE01D7FD379663E0EB
:10453000F595E7956A95E1F7F695FE2FEE27F79545
:10454000E795E00FF11FEA5DFE4FC770DD2781E0C0
:1045500090E00C2E01C0880F0A94EAF7908198270A
:1045600090830CC0833009F08FCFF701868197814B
:10457000801B910B8E01EC01219791CFDF91CF91A0
:104580001F910F91FF90EF90DF90CF9008951F93B0
:10459000CF93DF93EC01162F40E450E060E870E029
:1045A0000E94361E82E795E0998388838FEF898F7A
:1045B0008D8F8B8F8A8F1C8FDF91CF911F910895E4
:1045C00080E094E0E6E2F1E0DF019C011D922150E1
:1045D0003040E1F70895FC01868D882339F06EBDE7
:1045E00000000DB407FEFDCF8EB5089588E090E081
:1045F00030E8A1A1B2A14C9120A5209524232C93B1
:10460000A78DB0A127A1432F462321F04C91422B27
:104610004C9304C04C91209524232C93A1A1B2A1CA
:104620002C9140A5242B2C933695019711F70895D2
:104630001F93CF93DF93EC01162F898D8F3F09F1E4
:10464000EBA1FCA1808199A5892B8083EDA1FEA11E
:1046500090818AA5809589238083EBA1FCA190811C
:1046600089A5809589238083CE010E94EB22EBA14E
:10467000FCA1808199A5892B8083DF91CF911F9127
:1046800008958F89682F772767FD70958DE296E0F2
:104690000E94251A60E08DE296E00E94D219612FF7
:1046A0008DE296E00E94D2198DE296E0DF91CF91E3
:1046B0001F910C949D1A0F931F93CF93DF93EC01DE
:1046C000162F022F688F4F8B898D8F3F09F477C08B
:1046D00061E08B8D0E94F52561E08D8D0E94F525AE
:1046E0008D8D992787FD9095FC01EF59F94FE49145
:1046F000F0E0EE0FFF1FE158F94F259134913CA3F4
:104700002BA3FC01E35BF94F849189A78B8D99273B
:1047100087FD9095FC01EF59F94FE491F0E0EE0F21
:10472000FF1FE158F94F259134913EA32DA3FC01C1
:10473000E35BF94F84918AA78E8D811134C061E0CB
:10474000898D0E94F52561E08A8D0E94F5258A8D6C
:10475000992787FD9095FC01EF59F94FE491F0E01E
:10476000EE0FFF1FE158F94F259134913AA329A389
:10477000FC01E35BF94F849188A7898D992787FD18
:104780009095FC01EF59F94FE491F0E0EE0FFF1F17
:10479000E158F94F2591349138A32F8FFC01E35B49
:1047A000F94F84918FA38E8D882369F00E9444195C
:1047B0008CB58C7F8CBD8DB581608DBD04C08DE2C4
:1047C00096E00E94111A0023E1F061E08C8D0E94B6
:1047D000F52561E08C8D0E942E2661E070E080E07E
:1047E00090E00E94692560E08C8D0E942E266AE090
:1047F00070E080E090E00E94692561E08C8D0E946D
:104800002E266EEACE010E94182365EDCE010E948D
:10481000182360E8CE010E94182368EACE010E94A6
:1048200018236FE3CE010E94182363EDCE010E948E
:10483000182360E0CE010E94182360E4CE010E949C
:1048400018236DE8CE010E941823113011F460E1A5
:1048500001C064E1CE010E94182360E2CE010E94F3
:10486000182360E0CE010E94182361EACE010E9465
:10487000182368ECCE010E9418236AEDCE010E9435
:10488000182362E1CE010E94182361E8CE010E9444
:104890001823113011F46FE901C06FECCE010E94B2
:1048A000182369EDCE010E941823113011F462E241
:1048B00001C061EFCE010E9418236BEDCE010E9472
:1048C000182360E4CE010E94182364EACE010E94FE
:1048D000182366EACE010E9418236FEACE01DF9109
:1048E000CF911F910F910C941823DF92EF92FF92BA
:1048F0000F931F93CF93DF93EC0161E20E94182383
:1049000060E0CE010E9418236FE7CE010E941823B9
:1049100062E2CE010E94182360E0CE010E941823BB
:1049200067E0CE010E941823898D8F3F31F1EBA102
:10493000FCA1808199A5892B8083EDA1FEA18081B6
:104940009AA5892B8083EBA1FCA1908189A58095F4
:104950008923808306E211E0F80161918F01CE0185
:104960000E94EB22F5E006321F07B1F7EBA1FCA194
:10497000808199A5892B808337C0D090B8008CE0C6
:104980008093B80006E211E06F89772767FD709584
:104990008DE296E00E94251AE0912D06F0912E06F8
:1049A0000190F081E02D60E48DE296E00995E12C24
:1049B000F12CF801EE0DFF1D60818DE296E00E9462
:1049C000D2198FEFE81AF80AE0E1EE16F10489F740
:1049D0008DE296E00E949D1A005F1F4FF5E00632BF
:1049E0001F0791F6D092B800DF91CF911F910F91E0
:1049F000FF90EF90DF9008951F920F920FB60F92E5
:104A000011242F933F938F939F93AF93BF938091E4
:104A1000EE069091EF06A091F006B091F10630916C
:104A2000ED0626E0230F2D3720F40296A11DB11DBF
:104A300005C029E8230F0396A11DB11D2093ED06A3
:104A40008093EE069093EF06A093F006B093F106E4
:104A50008091F2069091F306A091F406B091F506CC
:104A60000196A11DB11D8093F2069093F306A093C9
:104A7000F406B093F506BF91AF919F918F913F914E
:104A80002F910F900FBE0F901F9018953FB7F8947D
:104A90008091F2069091F306A091F406B091F5068C
:104AA00026B5A89B05C02F3F19F00196A11DB11D89
:104AB0003FBF6627782F892F9A2F620F711D811DA6
:104AC000911D43E0660F771F881F991F4A95D1F704
:104AD0000895CF92DF92EF92FF92CF93DF936B0115
:104AE0007C010E944625EB01C114D104E104F104CC
:104AF00089F00E9412290E9446256C1B7D0B683E9E
:104B0000734090F381E0C81AD108E108F108C85158
:104B1000DC4FEACFDF91CF91FF90EF90DF90CF9005
:104B20000895789484B5826084BD84B5816084BD25
:104B300085B5826085BD85B5816085BDEEE6F0E016
:104B4000808181608083E1E8F0E010828081826072
:104B50008083808181608083E0E8F0E080818160F3
:104B60008083E1EBF0E0808184608083E0EBF0E023
:104B7000808181608083EAE7F0E0808184608083C7
:104B800080818260808380818E7F80838081806845
:104B900080831092C1000895833081F028F4813021
:104BA00099F08230A1F008958730A9F08830B9F0EB
:104BB0008430D1F4809180008F7D03C0809180008B
:104BC0008F7780938000089584B58F7702C084B575
:104BD0008F7D84BD08958091B0008F7703C0809150
:104BE000B0008F7D8093B0000895CF93DF9390E065
:104BF000FC01E35BF94F2491FC01EF59F94F8491DB
:104C0000882349F190E0880F991FFC01E757F94F7D
:104C1000A591B4918158994FFC01C591D4919FB74A
:104C2000611108C0F8948C91209582238C9388811F
:104C300082230AC0623051F4F8948C91322F30955F
:104C400083238C938881822B888304C0F8948C9171
:104C5000822B8C939FBFDF91CF9108950F931F9369
:104C6000CF93DF931F92CDB7DEB7282F30E0F90145
:104C7000E75CF94F8491F901E35BF94F1491F90175
:104C8000EF59F94F04910023C9F0882321F069837B
:104C90000E94CC256981E02FF0E0EE0FFF1FE15864
:104CA000F94FA591B4919FB7F8948C91611103C00D
:104CB0001095812301C0812B8C939FBF0F90DF91B2
:104CC000CF911F910F910895CF93DF93282F30E05C
:104CD000F901E75CF94F8491F901E35BF94FD49155
:104CE000F901EF59F94FC491CC2391F081110E9441
:104CF000CC25EC2FF0E0EE0FFF1FEB58F94FA591FC
:104D0000B4912C912D2381E090E021F480E002C049
:104D100080E090E0DF91CF9108950E94452CFC0146
:104D2000818D228D90E0805C9F4F821B91098F7353
:104D300099270895FC01918D828D981731F0828D0D
:104D4000E80FF11D858D90E008958FEF9FEF089596
:104D5000FC01918D828D981761F0828DDF01A80F83
:104D6000B11D5D968C91928D9F5F9F73928F90E0A5
:104D700008958FEF9FEF089586E298E2892B49F01E
:104D800080E090E0892B29F00E94262881110C9464
:104D900000000895FC01848DDF01A80FB11DA35A06
:104DA000BF4F2C91848D90E001968F739927848F4B
:104DB000A689B7892C93A089B1898C9180648C9342
:104DC000938D848D981306C00288F389E02D80812D
:104DD0008F7D80830895CF93DF93EC01888D8823A6
:104DE000C9F0EA89FB89808185FD05C0A889B98958
:104DF0008C9186FD0FC00FB607FCF5CF808185FF33
:104E0000F2CFA889B9898C9185FFEDCFCE010E94A0
:104E1000CA26E7CFDF91CF910895CF92DF92FF921C
:104E20000F931F93CF93DF931F92CDB7DEB76C0123
:104E300081E0D60158968C9358975B969C915B972E
:104E40005C968C915C97981307C05096ED91FC91FD
:104E50005197808185FD2EC0F601038D10E00F5F14
:104E60001F4F0F731127F02EF601848DF81211C019
:104E70000FB607FCF9CFD6015096ED91FC915197F2
:104E8000808185FFF1CFC60169830E94CA266981AE
:104E9000EBCF838DE80FF11DE35AFF4F6083D601FE
:104EA0005B960C935B975296ED91FC9153978081A2
:104EB00080620CC0D6015696ED91FC9157976083A5
:104EC0005096ED91FC91519780818064808381E0C0
:104ED00090E00F90DF91CF911F910F91FF90DF90A5
:104EE000CF900895BF92CF92DF92EF92FF92CF932F
:104EF000DF93EC016A017B01B22E60E874E88EE179
:104F000090E0A70196010E9423292150310941090F
:104F100051095695479537952795E889F98982E093
:104F20008083211580E1380798F0E889F98910829B
:104F300060E472E48FE090E0A70196010E942329CB
:104F400021503109410951095695479537952795C3
:104F5000EC85FD853083EE85FF852083188EEC89F6
:104F6000FD89B082EA89FB89808180618083EA893A
:104F7000FB89808188608083EA89FB8980818068E1
:104F80008083EA89FB8980818F7D8083DF91CF9147
:104F9000FF90EF90DF90CF90BF9008951F920F92F7
:104FA0000FB60F9211242F938F939F93EF93FF933C
:104FB000E0910607F09107078081E0910C07F091DE
:104FC0000D0782FD12C0908180910F078F5F8F7354
:104FD00020911007821751F0E0910F07F0E0EA509E
:104FE000F94F958F80930F0701C08081FF91EF915A
:104FF0009F918F912F910F900FBE0F901F9018953A
:105000001F920F920FB60F9211242F933F934F933D
:105010005F936F937F938F939F93AF93BF93EF9320
:10502000FF9386EF96E00E94CA26FF91EF91BF9111
:10503000AF919F918F917F916F915F914F913F9130
:105040002F910F900FBE0F901F90189586EF96E04E
:105050000E948F2621E0892B09F420E0822F0895F9
:105060001092F9061092F80688EE93E0A0E0B0E006
:105070008093FA069093FB06A093FC06B093FD067E
:105080008AE895E09093F7068093F60685EC90E029
:10509000909303078093020784EC90E090930507B8
:1050A0008093040780EC90E09093070780930607B5
:1050B00081EC90E0909309078093080782EC90E0E0
:1050C00090930B0780930A0786EC90E090930D076E
:1050D00080930C0710920F0710921007109211077F
:1050E00010921207089508950E9491250E94732836
:1050F0000E943607CCEBD6E20E942E092097E1F3FE
:105100000E94BC26F9CF0C941E2B0C94B62BCF9288
:10511000DF92EF92FF920F931F93CF93DF936C0177
:105120007A01EB01E60EF71E00E010E0CE15DF0578
:1051300061F06991D601ED91FC910190F081E02D33
:10514000C6010995080F191FF1CFC801DF91CF9152
:105150001F910F91FF90EF90DF90CF900895611510
:10516000710581F0DB010D900020E9F7AD014150A0
:105170005109461B570BDC01ED91FC910280F38134
:10518000E02D099480E090E00895EF92FF920F9354
:105190001F93CF93DF938C01FB01C0E0D0E06491BB
:1051A0007F018FEFE81AF80A662361F0D801ED91CC
:1051B000FC910190F081E02DC8010995C80FD91F1D
:1051C000F701EDCFCE01DF91CF911F910F91FF90AD
:1051D000EF90089566E975E00C94AF280F931F9344
:1051E000CF93DF93EC010E94C5288C01CE010E9471
:1051F000EA28800F911FDF91CF911F910F910895A1
:105200000F931F93CF93DF93EC010E94AF288C0183
:10521000CE010E94EA28800F911FDF91CF911F914C
:105220000F9108950895DB018F939F930E944B295E
:10523000BF91AF91A29F800D911DA39F900DB29F32
:10524000900D11240895A1E21A2EAA1BBB1BFD018B
:105250000DC0AA1FBB1FEE1FFF1FA217B307E40755
:10526000F50720F0A21BB30BE40BF50B661F771FAD
:10527000881F991F1A9469F760957095809590958D
:105280009B01AC01BD01CF010895EE0FFF1F0590FA
:10529000F491E02D09940E940F2BA59F900DB49FCF
:1052A000900DA49F800D911D11240895DF93CF933D
:1052B0001F930F939A9DF02D219FF00D8B9DF00D64
:1052C0008A9DE02DF10D039FF00D029FE00DF11D71
:1052D0004E9DE00DF11D5E9DF00D4F9DF00D7F93F5
:1052E0006F93BF92AF925F934F93D5010E940F2BA4
:1052F0008B01AC01D7010E940F2BEB01E80FF91FC6
:10530000D6010E94A6292F913F91D6010E940F2B12
:10531000C60FD71FE81FF91FAF91BF910E94A629A2
:105320002F913F910E940F2BC60FD71FE81FF91F27
:10533000D6010E940F2BE60FF71F9801BE01CF0187
:1053400011240F911F91CF91DF9108950E940F2B8F
:10535000460F571FC81FD91F08F431960895E894C7
:10536000DF93CF93FC01DB010E940F2B7F936F93A0
:10537000E9019A01AC01BF93AF933F932F93DF01F3
:105380000E940F2B26F46C1B7D0B820B930B9E014E
:10539000EB01FC010E94A629AF91BF912F913F9193
:1053A0000E94A629BE01CF01F9012F913F91CF9113
:1053B000DF910895689401C0E894F92FF12B12F061
:1053C0000C940E2AA0E0B0E0E8EEF9E20C94802AFA
:1053D000092E059422F40E946A2A112392F4F0E81F
:1053E0000F26FFEFE094F09400951095B094C094D0
:1053F000D094A194BF0ACF0ADF0AEF0AFF0A0F0B6D
:105400001F0B0E94192A07FC0E946A2ACDB7DEB73B
:10541000ECE00C949C2A689401C0E8948F929F92CF
:10542000CF93DF930E94192ADF91CF919F908F90A5
:10543000089588249924F401E401B0E49F93AA27F5
:105440009A158B049C04ED05FE05CF05D007A10736
:1054500098F4AD2FDC2FCF2FFE2FE92D982C892E1D
:10546000982F872F762F652F542F432F322F2227E7
:10547000B85031F7BF9127C01B2EBF91BB27220F19
:10548000331F441F551F661F771F881F991F881CD5
:10549000991CEE1FFF1FCC1FDD1FAA1FBB1F8A1404
:1054A0009B04EC05FD05CE05DF05A007B10748F01C
:1054B0008A189B08EC09FD09CE09DF09A00BB10B86
:1054C00021601A94E1F62EF49401AF01BE01CD01E2
:1054D000000C089560957095809590953095409555
:1054E000509521953F4F4F4F5F4F6F4F7F4F8F4FDD
:1054F0009F4F08952F923F924F925F926F927F92AB
:105500008F929F92AF92BF92CF92DF92EF92FF92D3
:105510000F931F93CF93DF93CDB7DEB7CA1BDB0B7F
:105520000FB6F894DEBF0FBECDBF09942A88398824
:1055300048885F846E847D848C849B84AA84B9842B
:10554000C884DF80EE80FD800C811B81AA81B98137
:10555000CE0FD11D0FB6F894DEBF0FBECDBFED014B
:1055600008950F93083090F0982F872F762F652F8E
:10557000542F432F322F22270850F4CF220F331FEE
:10558000441F551F661F771F881F991F0A95B2F782
:105590000F91089597FB10F8169400080F930830A8
:1055A00098F00850232F342F452F562F672F782F30
:1055B000892F902DF4CF05949795879577956795CA
:1055C00057954795379527950A95AAF70F9108950E
:1055D0002A0D3B1D4C1D5D1D6E1D7F1D801F911FE3
:1055E00008952A193B094C095D096E097F09800B52
:1055F000910B08952A153B054C055D056E057F0549
:105600008007910708950024A7FD00942A1730050C
:105610004005500560057005800590050895A29F1E
:10562000B001B39FC001A39F700D811D1124911D76
:10563000B29F700D811D1124911D0895CF93DF93AA
:105640008230910510F482E090E0E0919507F091AE
:10565000960720E030E0A0E0B0E0309739F14081DB
:10566000518148175907B8F04817590771F48281DA
:105670009381109729F013969C938E9312972CC0C8
:10568000909396078093950727C02115310531F037
:105690004217530718F0A901DB0101C0EF019A017D
:1056A000BD01DF010280F381E02DD7CF2115310547
:1056B000F9F0281B390B2430310580F48A819B8155
:1056C0006115710521F0FB019383828304C09093DF
:1056D000960780939507FE01329644C0FE01E20FC3
:1056E000F31F8193919322503109398328833AC063
:1056F0002091930730919407232B41F420910201CC
:105700003091030130939407209393072091000177
:10571000309101012115310541F42DB73EB740917B
:10572000040150910501241B350BE0919307F09182
:105730009407E217F307A0F42E1B3F0B2817390735
:1057400078F0AC014E5F5F4F2417350748F04E0FDD
:105750005F1F50939407409393078193919302C0E6
:10576000E0E0F0E0CF01DF91CF910895CF93DF9398
:10577000009709F487C0FC01329713821282C0910E
:105780009507D0919607209781F420813181280FC9
:10579000391F80919307909194078217930779F5A9
:1057A000F0939407E09393076DC0DE0120E030E0B2
:1057B000AE17BF0750F412964D915C9113979D015F
:1057C0004115510509F1DA01F3CFB383A28340817A
:1057D0005181840F951F8A179B0771F48D919C91BD
:1057E0001197840F951F02969183808312968D9155
:1057F0009C911397938382832115310529F4F093AB
:105800009607E09395073EC0D9011396FC93EE935B
:1058100012974D915D91A40FB51FEA17FB0779F41C
:1058200080819181840F951F0296D90111969C93D6
:105830008E938281938113969C938E931297E0E0CE
:10584000F0E08A819B81009719F0FE01EC01F9CF0D
:10585000CE01029628813981820F931F20919307F0
:10586000309194072817390769F4309729F410927A
:1058700096071092950702C013821282D093940764
:10588000C0939307DF91CF91089581E090E0F89461
:105890000C941C2FFB01DC0101900D920020E1F71C
:1058A0000895AEE0B0E0E7E5FCE20C94882A0D89AB
:1058B0001E8986E08C831A8309838FEF9FE79E837E
:1058C0008D83AE01475E5F4F6F89788DCE01019663
:1058D0000E94732CEF81F885E00FF11F10822E9645
:1058E000E4E00C94A42AACE0B0E0E9E7FCE20C941C
:1058F0007A2A7C016B018A01FC011782168283815E
:1059000081FFBDC1CE0101964C01F7019381F601E3
:1059100093FD859193FF81916F01882309F4ABC1B9
:10592000853239F493FD859193FF81916F01853222
:1059300029F4B70190E00E946E2EE7CF512C312C54
:1059400020E02032A0F48B3269F030F4803259F03C
:10595000833269F420612CC08D3239F0803339F400
:10596000216026C02260246023C0286021C027FD5A
:1059700027C030ED380F3A3078F426FF06C0FAE041
:105980005F9E300D1124532E13C08AE0389E300DD7
:105990001124332E20620CC08E3221F426FD6BC1FF
:1059A000206406C08C3611F4206802C0883641F4A9
:1059B000F60193FD859193FF81916F018111C1CF14
:1059C000982F9F7D9554933028F40C5F1F4FFFE371
:1059D000F9830DC0833631F0833771F0833509F0D8
:1059E0005BC022C0F801808189830E5F1F4F442471
:1059F0004394512C540115C03801F2E06F0E711C14
:105A0000F801A080B18026FF03C0652D70E002C0C0
:105A10006FEF7FEFC5012C870E94632E2C0183015D
:105A20002C852F77222E17C03801F2E06F0E711CE3
:105A3000F801A080B18026FF03C0652D70E002C090
:105A40006FEF7FEFC5012C870E94582E2C012C850B
:105A50002068222E830123FC1BC0832D90E0481672
:105A60005906B0F4B70180E290E00E946E2E3A949D
:105A7000F4CFF50127FC859127FE81915F01B701E5
:105A800090E00E946E2E31103A94F1E04F1A5108C6
:105A90004114510471F7E5C0843611F0893639F5A7
:105AA000F80127FF07C060817181828193810C5FBB
:105AB0001F4F08C060817181882777FD8095982FDE
:105AC0000E5F1F4F2F76B22E97FF09C090958095DD
:105AD000709561957F4F8F4F9F4F2068B22E2AE0BF
